:080000005202040000000000A0
:100400003220EF00E301200083015000050031009D
:10041000C3212000008041001040BA000160EF00BD
:1004200000000600C021200083814100808141003E
:100430001380BA00000006000A0D3200204E300082
:1004400065783200616C2000696E430020486F00BF
:1004500065616E00647374006574720020506F00F3
:1004600049436C0032346C00484A650036347200EF
:10047000475000000000E0004220AF0008003700B5
:100480003B1C090000000000FE3F090000000000C6
:10049000FE3F0900000000000000E900F8FF3A00FC
:1004A000000006000FF82100F0FF210020A0B70097
:1004B0000000000081E0A8000600FC00217420007C
:1004C0006204200073052000824878008348780089
:1004D00042C7A90030002000CEA6B7000600FC00ED
:1004E00021742000620420007305200082487800F7
:1004F0008348780042C7A800F4032000343A8800FB
:1005000014002000243A88004827EF000400280047
:100510000411880004402000141188002062A80003
:1005200064052000441188002CA3EF000028EF0090
:1005300010C0B30006E8B7000828EF00A0002000B4
:100540003A020200000000000100200001007800D3
:100550000160EF0000020200000000008100E800DE
:100560002322AF00FEFF370024A2B700B002200014
:100570000008E600F5FF37002322AF00FEFF37003A
:10058000040220002411880006C8BF000160EF00AB
:100590001080B200030032001080B2007F003200F1
:1005A000F3003700C962A900CD62A800C962A900A2
:1005B000CD62A800C082A900C482A900C8E2A90037
:1005C000CCE2A800C8A2A900CCA2A800C8A2A90099
:1005D000CCA2A900C8E2A900CCE2A800C8A2A90048
:1005E000CCA2A800C8A2A900CCA2A900C8E2A90078
:1005F000CCE2A800C8A2A900CCA2A800C8A2A90069
:10060000CCA2A900C8E2A900CCE2A800C8A2A90017
:10061000CCA2A800C8A2A900CCA2A900C8E2A90047
:10062000CCE2A800C8A2A900CCA2A800C8A2A90038
:10063000CCA2A900C8E2A900CCE2A800C8A2A900E7
:10064000CCA2A800C8A2A900CCA2A900C8E2A90017
:10065000CCE2A800C8A2A900CCA2A800C8A2A90008
:10066000CCA2A900C8E2A900CCE2A800C8A2A900B7
:10067000CCA2A800C8A2A900CCA2A900C082A9004F
:10068000C482A8003000090000000000C082A90058
:10069000C482A900C8E2A900CCE2A900C8A2A900AE
:1006A000CCA2A800C8A2A900CCA2A900C8E2A900B7
:1006B000CCE2A900C8A2A900CCA2A800C8A2A900A7
:1006C000CCA2A900C8E2A900CCE2A900C8A2A90056
:1006D000CCA2A800C8A2A900CCA2A900C8E2A90087
:1006E000CCE2A900C8A2A900CCA2A800C8A2A90077
:1006F000CCA2A900C8E2A900CCE2A900C8A2A90026
:10070000CCA2A800C8A2A900CCA2A900C8E2A90056
:10071000CCE2A900C8A2A900CCA2A800C8A2A90046
:10072000CCA2A900C942A900CD42A800C8E2A900F4
:10073000CCE2A900C8A2A900CCA2A800C8A2A90026
:10074000CCA2A900C8E2A900CCE2A900C8A2A900D5
:10075000CCA2A800C8A2A900CCA2A900C942A900A5
:10076000CD42A900C082A900C482A8000828EC00DC
:1007700044408000231420000418E10004003E00DF
:100780000828EF000668EF00C962A900CD62A90041
:10079000DA0009000000000075003700C082A900DF
:1007A000C482A900C8E2A900CCE2A800C8A2A9009E
:1007B000CCA2A800C8A2A900CCA2A900C8E2A900A6
:1007C000CCE2A900C8A2A900CCA2A800C8A2A90096
:1007D000CCA2A900C8E2A900CCE2A900C8A2A90045
:1007E000CCA2A800C8A2A900CCA2A900C8E2A90076
:1007F000CCE2A900C8A2A900CCA2A800C8A2A90066
:10080000CCA2A900C8E2A900CCE2A900C8A2A90014
:10081000CCA2A800C8A2A900CCA2A900C8E2A90045
:10082000CCE2A900C8A2A900CCA2A800C8A2A90035
:10083000CCA2A900C8E2A900CCE2A900C8A2A900E4
:10084000CCA2A800C8A2A900CCA2A900C8E2A90015
:10085000CCE2A900C8A2A900CCA2A800C8A2A90005
:10086000CCA2A900C082A900C482A800300009005F
:1008700000000000C082A900C482A900C8E2A9004B
:10088000CCE2A900C8A2A900CCA2A800C8A2A900D5
:10089000CCA2A900C8E2A900CCE2A900C8A2A90084
:1008A000CCA2A800C8A2A900CCA2A900C8E2A900B5
:1008B000CCE2A800C8A2A900CCA2A800C8A2A900A6
:1008C000CCA2A900C8E2A900CCE2A900C8A2A90054
:1008D000CCA2A800C8A2A900CCA2A900C8E2A90085
:1008E000CCE2A800C8A2A900CCA2A800C8A2A90076
:1008F000CCA2A900C8E2A900CCE2A900C8A2A90024
:10090000CCA2A800C8A2A900CCA2A900C8E2A90054
:10091000CCE2A800C8A2A900CCA2A800C8A2A90045
:10092000CCA2A900C8E2A900CCE2A800C8A2A900F4
:10093000CCA2A800C8A2A900CCA2A900C082A9008C
:10094000C482A8000828EC0044408000833C2000BA
:100950000418E10003003E000828EF0010C0B300B7
:1009600006E8B700DA0009000000000000003700C8
:0809700005FF37000040FE0006
:0200000401F009
:10000000CF00FF00CF00FF000700FF008100FF00CE
:100010002300FF005F00FF001700FF00C300FF0088
:00000001FF
;PIC24HJ64GP202
;CRC=9506  CREATED="24-Jul-23 13:47"
