:040000003EEF15F0CA
:0800080000C004F001C005F086
:1000100002C006F0076A03C008F000016F00D4FFB9
:1000200009F06F00D8FF0AF06F00DCFF0BF0390118
:1000300094A11EEF00F0A4B101EF01F097A924EF05
:1000400000F0A7B90EEF01F0600027F0F5FF6000A7
:100050002BF0F6FF60002FF0F7FF04C000F005C0A2
:1000600001F006C002F0078E08C003F01100F76A25
:100070007E0FF66E000EF7220900F5501200534174
:100080002C320000F76A940FF66E000EF72209007A
:10009000F550120053472C300000F76AAA0FF66E95
:1000A000000EF7220900F5501200534D2C300000CD
:1000B000F76AC00FF66E000EF7220900F550120025
:1000C000534E2C48616C6F00F76AD80FF66E000E25
:1000D000F7220900F550120053592C340000F76A3A
:1000E000EE0FF66E000EF7220900F5501200535382
:1000F0002C53657269616C20506F72740000F76A4E
:100100000E0FF66E010EF7220900F5501200522C68
:100110003100F76A220FF66E010EF7220900F55042
:1001200012002F000A0D2073746174653D2575005F
:100130000A0D204254205265736574000A0D204355
:100140006F6E6669677572696E67204254000A0DAA
:1001500020000A0D20446F6E6520425420436F6ECC
:10016000666967000A0D20536C65657000000A0D12
:100170002053656C66205465737400000A0D20508E
:10018000726F6772616D6D6572206174746163680E
:10019000656400000A0D2050726F6772616D6D65B5
:1001A00072206E6F7420617474616368656400000E
:1001B0000A0D204D6178536574706F696E74203D2F
:1001C000202566000A0D2043686172676572206110
:1001D00074746163686564000A0D20436861726726
:1001E0006572206E6F742061747461636865640069
:1001F0000A0D20426174746572793D2020256C756A
:1002000000000001B10EB16EBC0EB06E0000020124
:1002100020813901A491000124EF00F0000139018F
:10022000A7A9FED73D01D05102019A6F9A51240A25
:10023000000103E0070A06E00AD0010E02011E6F6A
:100240001D6B12D002011E851E830ED0000102011B
:100250001EA10AD01F0E1D25E96EEA6AD8B0EA2A4F
:1002600060006BFAEFFF1D2B1E51070B070802E120
:10027000800E1E6F3901A799000124EF00F0426142
:1002800074746572792046756C6C00000A0D202527
:10029000752C20256C75202C20256C752C20256C48
:1002A000752C20256C752C20256C752000000A0DFE
:1002B00020000A0D2024257300000A0D2024257338
:1002C00000000A0D20000A0D2024257300000A0DED
:1002D0002024257300000A0D20000A0D2024257318
:1002E00000000A0D2024257300000A0D20000A0DCD
:1002F0002024257300000A0D202425730000736557
:1003000074006F6E006F6666006461746100736CE8
:100310006565700000000A0D20536C656570000073
:100320000A0D20536C65657000000A0D20496E6946
:100330007469616C697A696E67204D61696E2043EA
:100340006F6E74726F6C6C65722056657220332EFE
:10035000302E3500020EEA6E910EE96EEF500DE080
:100360000A0E016E006A002EFED7012EFBD75F0E2B
:10037000006E002EFED7EF2EF3D712000201206B85
:100380003E6B3D6B386B376B366B356B090E226FEE
:10039000600E216F1F6B406B426B416B0001F1EFF0
:1003A00015F0800ED8A202D002016F1B0201746BFF
:1003B000756B6BC273F26F51731B6A51D8B4DFD087
:1003C000726F006E6E51D8B4E3D0725FD8B483D030
:1003D0003EE36FC278F2788F70C277F271C276F224
:1003E000756BD8907833773376337533722FF8D7AF
:1003F00073AF03D07481E0D0749172917489020E4E
:10040000EA6E6D0EE96EEBD0749973BF0AD072A1DB
:1004100013D07833773376337533002AD8B4C7D006
:100420000BD078BF0CD0D8907537763777377837C0
:100430000006D8B4BCD0F5D7748D6DD0749D6BC256
:1004400073F26BAF02D0788FABD0789FA9D06EC219
:1004500072F26EC200F06A51725F6BC278F2788FEE
:100460006CC277F26DC276F2756BD89078337733C1
:1004700076337533722FF8D773AF03D074839CD063
:1004800074937291748B020EEA6E710EE96EA7D0AE
:10049000749B73BF0AD072A113D07833773376334D
:1004A0007533002AD8B483D00BD078BF0CD0D89045
:1004B00075377637773778370006D8B478D0F5D7E0
:1004C000748F29D0749F6FC273F26FAF02D0788F90
:1004D00067D0789F65D06FC278F2788F70C277F25C
:1004E00071C276F273AF04D0789F748565D074952D
:1004F000756B7291020EEA6E6D0EE96E70D073BF6D
:100500001CD06BC273F272A106D078337733763386
:100510007533002A4CE075AF0BD0762B09E1772BB1
:1005200007E1782B05E1783377337633002A3FE013
:1005300074BD84D774BFC6D71CD0800E781B78AF2B
:1005400004D03AD06FC273F20AD06BC273F2785300
:1005500006E1775304E1765302E1006A21D078BFC7
:1005600008D0D8907537763777377837002EF7D799
:100570001ED073AF02D0788F13D0789F11D06EC287
:1005800000F06FC278F270C277F271C276F208D0D2
:100590006AC200F06BC278F26CC277F26DC276F27A
:1005A00078C201F077C202F076C203F034D0006A5C
:1005B000016A026A036A2FD0756B761F771F781F56
:1005C000751F752B05E1762B03E1772B01E1782B65
:1005D00074B112D774B354D774B589D7B3D7EF5069
:1005E000762705E3772B03E1782BD8B47281ED529F
:1005F000EF50772703E3782BD8B47281ED52EF5098
:10060000EFBE01D0800A7827D8B0728174B9FCD6C9
:1006100074BB3ED774D70001120002016A51D8B4EE
:1006200074D0006E6E51D8B470D0002604E3810EF1
:1006300000266BE204D07F0E005E67E366E06BC2CB
:1006400072F26F51721B6B8F6F8F6D5171036F0060
:10065000D0FF74F26C5170036F00D0FF03F06F0095
:10066000CCFF73F27103F3507427F4507323000E20
:1006700003226D517003F3507427F4507323000E5E
:10068000026A032202226B517103F3507327F45064
:100690000322000E02226B517003F3500326F45024
:1006A0000222000E016A01226D516F03F35073277D
:1006B000F4500322000E022201226C516F03F3500A
:1006C0000326F4500222000E01226B516F03F350F7
:1006D0000226F4500122002A01BE05D073370336EA
:1006E000023601360006000E73AF0AD0032A02223A
:1006F0000122015005E1025003E1035001E1002A0B
:1007000072BF018E72AF019E04D0006A016A026A54
:10071000036A000112006BC272F202016F51721B78
:1007200072AF05D0D894D8906BBFD8802FD06BC251
:1007300072F26EC273F26A51735F06E072AF26D036
:10074000D850010AD86E22D06FC273F26B51735F1A
:1007500006E072AF1BD0D850010AD86E17D070C215
:1007600073F26C51735F06E072AF10D0D850010A7B
:10077000D86E0CD071C273F26D51735F06E072AF28
:1007800005D0D850010AD86E01D0D89000011200CF
:100790008E0E006E02016A51005E6BC202F06CC2E6
:1007A00001F0028E005209E0D890025202E101529B
:1007B00004E002320132002EF7D76BAF05D0011EE4
:1007C000021E012AD8B4022A0001120039019491B4
:1007D00002016151000A000103E0010A15E099D00D
:1007E00002014F6B4E6B4D6B4C6B3E6B3D6B696BFF
:1007F000686B676B666B306B2F6B2E6B2D6B2A6B88
:10080000296B2C6B2B6B86D0D88238C26DF237C225
:100810006CF236C26BF235C26AF230C271F22FC28C
:1008200070F22EC26FF22DC26EF2BBDD34C26DF2D9
:1008300033C26CF232C26BF231C26AF203C071F29F
:1008400002C070F201C06FF200C06EF2E6DE03C0BB
:1008500065F202C064F201C063F200C062F2D89295
:100860004FC26DF24EC26CF24DC26BF24CC26AF2D4
:1008700065C271F264C270F263C26FF262C26EF25C
:1008800090DD03C04FF202C04EF201C04DF200C035
:100890004CF202016D6B6C6B160E6B6F860E6A6FFD
:1008A0004FC271F24EC270F24DC26FF24CC26EF284
:1008B000000131DF08E302014F6B4E6B160E4D6FE6
:1008C000860E4C6F00014FC26DF24EC26CF24DC2EB
:1008D0006BF24CC26AF20201716B706B6F6B6E6BE4
:1008E000000119DF06E302014F6B4E6B4D6B4C6B41
:1008F00000014FC26DF24EC26CF24DC26BF24CC29F
:100900006AF246DF02C03EF201C03DF2020102D0AF
:10091000000102016000FBF87DFF6000F7F87CFF3A
:100920003901948100011200C498BC98C298BA9809
:10093000C496BC86C29EBA8EC392BB92C384020187
:100940005B6BCBB45B2B6F0E346F120E336F030EE9
:10095000326F760E316F0001F8EF15F00900F55295
:1009600014E06F00D8FF6FF26F00DCFF70F2F550FB
:100970003901A3A9FED73D01EA6F6000BFF9F6FF78
:100980006000C3F9F7FF0001E9D712008E0E006E78
:1009900066C201F065C202F0036A015209E102C0B9
:1009A00001F0026A080E005E015202E1006A08D0FE
:1009B000D89001BE04D0023601360006F9D7019E58
:1009C000120009006F00D8FF66F26F00DCFF67F2CB
:1009D000F5503901A3A9FED73D01EA6F60009BF9EC
:1009E000F6FF60009FF9F7FF0201652F01D002D0EA
:1009F0000001E7D70001120002016851B608686FD4
:100A0000036A69C26CF2698FD89069336A336B33B9
:100A10000332023201320032682FF6D76CAF0BD0AE
:100A2000001E011E021E031E002AD8B4012AD8B4DB
:100A3000022AD8B4032A000197EF05F0D8B204D0F7
:100A4000020EEA6E700EE96E006A016A026A036ABB
:100A50000201706B716B726B736B6F516E116D1164
:100A60006C112CE0200E746FD890683769376A37A4
:100A70006B3770377137723773376F51735D08E1B9
:100A80006E51725D05E16D51715D02E16C51705DF9
:100A90000FE36C51705F6D51D8A06D3D715F6E5169
:100AA000D8A06E3D725F6F51D8A06F3D735FD88044
:100AB0000036013602360336742FD6D76000C3F9EC
:100AC000EFFF6000C7F9ECFF6000CBF9ECFF6000BE
:100AD000CFF9ECFF00011200E9500201606F5F5195
:100AE000626F1BE05EC26DF25DC26CF25CC26BF2C3
:100AF0005BC26AF2716B706B200E6F6F820E6E6F4D
:100B000000018BDD03C05EF202C05DF201C05CF249
:100B100000C05BF20201622FE5D75EC26BF25DC2DC
:100B20006AF25CC269F25BC268F2000165D703C079
:100B30005EF202C05DF201C05CF200C05BF2020135
:100B40005EAF0DD06007608B5B1F5C1F5D1F5E1F7B
:100B50005B2BD8B45C2BD8B45D2BD8B45E2B3B0E8A
:100B6000676F9A0E666FCA0E656F646B0A0E626FCE
:100B70005F51D8B4602BD882020EEA6E5B0EE96E2C
:100B80005EC26BF25DC26AF25CC269F25BC268F27D
:100B900067C26FF266C26EF265C26DF264C26CF239
:100BA00000014CDF0150005213E102015F29625D38
:100BB000D8A402D000010CD060510DE00F0B625D93
:100BC00001E048E260BF46D060BD05D0200E3AD0BB
:100BD000200E0201601760AB10D0609B5F51D8A45B
:100BE00060070050606F2D0E3901A3A9FED73D01AB
:100BF000EA6F02016051006E606B5F51625D0EE151
:100C00000050606F2E0E3901A3A9FED73D01EA6F97
:100C100002016051006E200E6017000E300E60ABB6
:100C200011D0609B5F51D8A460070050606F2D0EFB
:100C30003901A3A9FED73D01EA6F02016051006EA0
:100C4000606B300E002600503901A3A9FED73D018C
:100C5000EA6F0201D89267C26BF266C26AF265C29D
:100C600069F264C268F26F6B6E6B6D6B0A0E6C6F2B
:100C70000001E4DE03C067F202C066F201C065F263
:100C800000C064F20201622F76D70001C7EF07F0BF
:100C9000020E02015F5F0CE3020EEA6E5F0EE96E68
:100CA000EF5006E003D000D000D00000EF2EFBD7BD
:100CB00000011200030E3E01F16F640E02015F6F2E
:100CC0000001E6DF3E01F8810000F8B1FED76F00B9
:100CD000C0FB02F06F00BCFB01F00230036E01307C
:100CE000026E033202323F0E031602C065F203C0E9
:100CF00066F200014BDE03C05EF202C05DF201C08D
:100D00005CF200C05BF25EC26DF25DC26CF25CC26E
:100D10006BF25BC26AF20A0E0201716FD70E706F3E
:100D2000230E6F6F7E0E6E6F000177DC03C06DF2D5
:100D300002C06CF201C06BF200C06AF229DD02C091
:100D400024F201C023F2050E3E01F16F640E020190
:100D50005F6F00019DDF3E01F8810000F8B1FED712
:100D60006F00C0FB02F06F00BCFB01F00230036EAD
:100D70000130026E033202323F0E031602C065F2EA
:100D800003C066F2000102DE03C05EF202C05DF243
:100D900001C05CF200C05BF25EC26DF25DC26CF23B
:100DA0005CC26BF25BC26AF27B0E0201716F140EC1
:100DB000706F4E0E6F6F800E6E6F00012EDC03C0E1
:100DC0006DF202C06CF201C06BF200C06AF2E0DCAE
:100DD00002C026F201C025F212006F00A8FF6DF2DA
:100DE0006F00A4FF6CF202016639F009686F682792
:100DF000E20F696F320F6B6F66510F0B692769271E
:100E00006B27E90F6A6F6A276A2765390F0B6A2714
:100E10006B276A376B376B1F6B3765510F0B6B276F
:100E20006837070E676F0A0E6A076B27FDE36907CD
:100E30006A27FDE368076927FDE367076827FDE385
:100E4000020EEA6E670EE96E070E6C156C9DE926C0
:100E5000000EEA22E9506B0804E1EA50020801E1C1
:100E60006C8DEF50006E08E16CBD06D06CB90FD0F0
:100E70006CB702D0200E03D06C876C99300E002620
:100E800000503901A3A9FED73D01EA6F0201EE50DF
:100E90006CADE0D7000112000A0E3901A3A9FED7FC
:100EA0003D01EA6F0D0E3901A3A9FED73D01EA6F9E
:100EB0006E0EF66E010EF76E000150DDC38ECBBED6
:100EC00026D07C0EF66E010EF76E48DDD250006E15
:100ED000D29E3901E16B010EE06F0A0EE36FE59DD2
:100EE000E59FE585550EE66FAA0EE66FE583E5B34F
:100EF000FED7E595E59DE58F0050D21202013C6BCF
:100F00003B6B200E3A6F820E396F24D00001940E95
:100F1000F66E010EF76E22DD6F0048FF5BF2D29E87
:100F20003901E16B010EE06FE59DE59FE581E3513D
:100F3000E59DE58F02015BBFD28E666B656F000198
:100F400025DD03C03CF202C03BF201C03AF200C012
:100F500039F202013C6B3B6B480E3A6F870E396FDA
:100F6000B00EF66E010EF76E110E656F000129DDF1
:100F7000890EE96E3CC25EF23BC25DF23AC25CF29F
:100F800039C25BF2020E02015F6F0001A5D5C38476
:100F9000CBA406D0C40EF66E010EF76EDFDC05D0D2
:100FA000D80EF66E010EF76ED9DC84DEF00EF66E0A
:100FB000010EF76E0D0E0201656F000102DD100ECD
:100FC000E96E24C266F223C265F207DFC490BC80DA
:100FD000C392BB82C80E0201916F0001AAEC01F01E
:100FE000C392BB92C298BA88010E02011F6F000122
:100FF000FAEF15F00F01ABA309D0AB9FAB991A0E16
:10100000006E002EFED70000AB8FAB8971A309D014
:10101000719F71991A0E006E002EFED70000718F1D
:101020007189000112003901A7ABFED73D01D26FD3
:10103000000112003C0EF66E010EF76E8FDC4E0EB4
:10104000F66E010EF76E8ADCC80E0201916F000188
:10105000AAEC01F0240EE7DF140E0201916F0001EB
:10106000AAEC01F0240EDFDF140E0201916F0001E3
:10107000AAEC01F0240ED7DF020E02015B6FFA0E1C
:10108000916F0001AAEC01F002015B2FF8D700017B
:101090000CEF16F092C296F291C295F260005BFAE4
:1010A000EAFF02019551E96EEF5206E0952BD8B4A4
:1010B000962B0001F3D70201600053FAEAFF935127
:1010C000E96EEF5216E0600053FAEAFF9351E96EC1
:1010D000EF5060005BFAEAFF600057FAE9FF6F002B
:1010E000A3FFEFFF952BD8B4962B932BD8B4942B5A
:1010F000E3D760005BFAEAFF9551E96EEF6A91C2AF
:1011000001F092C202F00001BDEF08F0EF5217E0CB
:101110006F00A8FF92F26F00A4FF91F2EF50390127
:10112000A7ABFED73D01D26F60004BFAEAFF60002B
:1011300047FAE9FFE92AD8B4EA2A0001E7D7120002
:101140000D0E0201716F726B020EEA6E730EE96E84
:101150006000C3F9E2FF6000BFF9E1FFE7526F00F2
:101160009BFFEEFFFBE1020E926F730E916F020E7A
:10117000946F710E936F00018DD7020EEA6E730E9D
:10118000E96EC4DFFA0E0201916F0001AAEC01F0D2
:1011900039015B51040000011200020EEA6E5B0E81
:1011A000E96E000E37EC00F00A000900F550EE6E13
:1011B0000009FBE1020E0201706F5B0E6F6F000110
:1011C000BFDF020EEA6E5B0EE96E000E42EC00F02D
:1011D0000A000900F550EE6E0009FBE1020E020163
:1011E000706F5B0E6F6F0001ABDF020EEA6E5B0E7D
:1011F000E96E000E4DEC00F00A000900F550EE6EAD
:101200000009FBE1020E0201706F5B0E6F6F0001BF
:1012100097DF020EEA6E5B0EE96E000E58EC00F0EE
:101220000A000900F550EE6E0009FBE1020E020112
:10123000706F5B0E6F6F000183DF020EEA6E5B0E54
:10124000E96E000E64EC00F00A000900F550EE6E45
:101250000009FBE1020E0201706F5B0E6F6F00016F
:101260006FDF020EEA6E5B0EE96E000E6FEC00F0AF
:101270000A000900F550EE6E0009FBE1020E0201C2
:10128000706F5B0E6F6F00015BDF020EEA6E5B0E2C
:10129000E96E000E7FEC00F00A000900F550EE6EDA
:1012A0000009FBE1020E0201706F5B0E6F6F00011F
:1012B00047DF520EF66E010EF76EAEEC04F00EEF45
:1012C00016F0016A026A006A036A0201645102E1CF
:1012D000635118E0100E656FD890613762370036A1
:1012E00003366451035C02E16351005C07E3635120
:1012F000005ED8A003066451035ED8800136023632
:10130000652FEAD70001120039019491C29EBA9E5E
:10131000C392BB9202013E5303E13D5101081FE21B
:10132000010E3D5F000E3E5B6000FBF87DFF60003C
:10133000F7F87CFF0A0E916F0001AAEC01F0100E85
:10134000E96E3EC266F23DC265F247DD2C0E390100
:10135000A3A9FED73D01EA6F3901DCD70201C2988B
:10136000BA987EA802D07D6A0ED0006A016A003663
:10137000013600360136FC0E0016600007F07DFFD6
:10138000600003F07CFF7AA802D0796A0ED0006A70
:10139000016A0036013600360136FC0E0016600088
:1013A00007F079FF600003F078FFC498BC88640EF2
:1013B000F66E010EF76E0001AEEC04F0C29EBA9E0E
:1013C000320E0201916F0001AAEC01F0C490BC90B2
:1013D000FFD7120002016851016A675D03E267C22C
:1013E00000F00CD0006A080E696F6737003668514C
:1013F000005CD8B0006E0136692FF7D700011200EB
:10140000015065C267F2640E0201686F0001E2DFFD
:1014100000C065F20150300E08E1020166A311D050
:1014200066B70FD066B9200E04D0020166976699A0
:101430006681012601503901A3A9FED73D01EA6F5B
:10144000020165C267F20A0E686F0001C3DF00C0C7
:1014500065F20150300E08E1020166B70DD066A1B9
:101460000BD066B9200E0001012601503901A3A955
:10147000FED73D01EA6F0201300E65276551390143
:10148000A3A9FED73D01EA6F00011200C384CBB4CB
:1014900004D00201406B6ED10001C498BC880201E7
:1014A0004051000A000109E0010A1AE0030AD8B419
:1014B00066D0010AD8B4A2D0AFD00201536B526BF0
:1014C000556B010E406F516B506B600047F979FF0F
:1014D000600043F978FF26C257F225C256F29DD02C
:1014E00002015751265D09E303E12551565D05E2EE
:1014F0005651255F5751265B02D0266B256B26512E
:10150000010815E303E12551F20811E32451010814
:101510000EE303E12351A4080AE3515307E15051BC
:10152000F90804E3020E5027000E51230FD0265174
:1015300000080CE2FF0A03E12551F90807E25051C7
:10154000511104E05051D8B45107500724510008FC
:1015500005E2FF0A0BE12351A30808E353511B08DE
:101560000AE2FF0A03E15251200805E2020E406F31
:10157000536B526B03D0522BD8B4532B4ED0020175
:101580005751265D09E303E12551565D05E25651A9
:10159000255F5751265B02D0266B256B245100082E
:1015A00009E2FF0A03E12351A40804E25051D8B430
:1015B00051075007245101080CE303E12351A3080C
:1015C00008E3515306E15051F90803E3502BD8B416
:1015D000512B265303E12551640808E253510D08AD
:1015E00009E2FF0A03E15251100804E2030E406FC2
:1015F000516B506B522BD8B4532B0FD00201516B4F
:10160000506B7E0EF66E020EF76E0001AEEC04F02B
:101610007BDE020102D0000102015451000A0001E8
:1016200007E0010A0AE0030A0DE0060A10E015D0FF
:10163000C29EBA8E0201542B14D0C29EBA9E0201E1
:10164000542B0FD0C29EBA9E0201542B0AD0C29EC8
:10165000BA9E0201546B05D000010201546BC29E78
:10166000BA9E600047F979FF600043F978FF565150
:1016700025255B6F575126215C6F8C0EF66E020E8E
:10168000F76E030E656F0001E1EC04F040C265F2F5
:101690001B0E0201666F0001B3DE2C0E3901A3A9F7
:1016A000FED73D01EA6F200E3901A3A9FED73D0107
:1016B000EA6F100EE96E51C266F250C265F2000187
:1016C000EDEC06F0960EF66E020EF76E030E0201BA
:1016D000656F0001E1EC04F0100EE96E24C266F2C1
:1016E00023C265F2EDEC06F02C0E3901A3A9FED75A
:1016F0003D01EA6F200E3901A3A9FED73D01EA6F33
:10170000100EE96E26C266F225C265F20001EDEC0C
:1017100006F02C0E3901A3A9FED73D01EA6F200E79
:101720003901A3A9FED73D01EA6F100EE96E5CC234
:1017300066F25BC265F20001EDEC06F02C0E390199
:10174000A3A9FED73D01EA6F200E3901A3A9FED758
:101750003D01EA6F100EE96E53C266F252C265F2A5
:101760000001EDEC06F0200E3901A3A9FED73D01E2
:10177000EA6F0201000135EF0CF039019491C49633
:10178000BC96010E0201916F0001AAEC01F0C49613
:10179000BC86300EF66E010EF76EAEEC04F0640EF1
:1017A0000201916F0001AAEC01F03901948100015E
:1017B000EAEF0BF0C48ACCAA10D00201472D0BD05F
:1017C000436B1F51020807E1020E486F010E1F6FA5
:1017D0000001D3D702010BD000010201475307E1FA
:1017E000010E436F4851020802E1010E1F6F43C210
:1017F00047F2000139EF0CF0240EF66E010EF76E81
:10180000090E0201656F0001E1EC04F043C265F2CC
:101810001B0E0201666F0001F3DD020143530BE171
:10182000445304E0446BC29EBA9E04D0010E446F40
:10183000C29EBA8E04D0432D02D0C29EBA8E000141
:101840003AEF0CF00201492BD8B44A2B4AC262F29B
:1018500049C261F2646B640E636F000132DD0050B7
:10186000031016E15AEC06F011D6C384CBB402D0B3
:10187000A1D7C2D702013F51060809E33E5303E155
:101880003D510A0804E2140E4B6FC392BB82000163
:1018900002014B5305E04B074B5302E1C392BB924D
:1018A000000117EF16F00201615163036F00CCFFD6
:1018B00001F06F00D0FF00F06403F3500026625186
:1018C0006303F3500020026E0001ECEF0DF0020103
:1018D0006351D8B4A5D06F6F6751D8B4A1D06F5FF2
:1018E00005E37F0E6F27D8B09BD006D0810E6F5FC7
:1018F000D8A096D0D8B494D06FC200F0016A026A22
:10190000036A6E6B64C26DF26D8F65C26CF266C263
:101910006BF2190E6F6F6A516B5F0DE2010E6C5F17
:101920000AE26D5F08E26E5F06E26E2B6D2B6C2B98
:101930006A516B2728D069516C5F12E2010E6D5F0E
:101940000FE26E5F0DE26E2B6D2B69516C276A51B1
:101950006B2719E36C2B17E16D2B15E16E2B13D060
:10196000685180096D5F0EE2010E6E5F0BE26E2B17
:10197000685180096D2769516C27E9E36D2BE7E118
:101980006E2BE5D703806F2F01D00BD0D8906B372B
:101990006C376D376E37D8900336023601367037A4
:1019A000BAD770A106D0D890013202320332703318
:1019B00002D0000635E070BF1ED0D8906B376C3770
:1019C0006D376E376A516B5F07E2010E6C5F04E2A0
:1019D0006D5F02E26E5F1AE369516C5F05E2010E12
:1019E0006D5F02E26E5F12E3685180096D5F03E292
:1019F000010E6E5F0BE3032A09E1022A07E1012AC7
:101A000005E1002A0DE001320232033264C26FF2B6
:101A100068516F1B6FAF02D0018E06D0019E04D0BB
:101A2000006A016A026A036A000107EF0EF03E01D4
:101A3000F16B850E006E002EFED7F8810000F8B124
:101A4000FED76F00C0FB02F06F00BCFB01F002305C
:101A5000036E0130026E033202323F0E031602C0E3
:101A600065F203C066F20001C6EC04F003C05EF24A
:101A700002C05DF201C05CF200C05BF25EC26DF2BA
:101A80005DC26CF25CC26BF25BC26AF20A0E0201CA
:101A9000716FD70E706F230E6F6F7D0E6E6F00012A
:101AA0000DEC03F003C06DF202C06CF201C06BF2EA
:101AB00000C06AF2C8EC03F002C028F201C027F2AD
:101AC000010E3E01F16F850E006E002EFED7F881EB
:101AD0000000F8B1FED76F00C0FB02F06F00BCFB46
:101AE00001F0023002012A6F0130296F2A332933B5
:101AF0003F0E2A17020E3E01F16F850E006E002E7A
:101B0000FED7F8810000F8B1FED76F00C0FB02F0ED
:101B10006F00BCFB01F0023002012C6F01302B6F13
:101B20002C332B333F0E2C172B512925016E2C51B2
:101B30002A21036E01C065F2666F0001C6EC04F055
:101B400003C030F202C02FF201C02EF200C02DF20D
:101B5000070E02013F6F29512A1132E02B512C113F
:101B60002FE02CC262F22BC261F22AC264F229C2B7
:101B700063F2000161EC09F002C062F201C061F29F
:101B80000201625303E16151020803E23F913F8584
:101B900017D02AC262F229C261F22CC264F22BC2AF
:101BA00063F2000161EC09F002C062F201C061F26F
:101BB0000201625303E16151020802E23F953F8155
:101BC0001F5102085DE128C262F227C261F2646B14
:101BD000640E636F000167D602C062F201C061F259
:101BE00002C066F201C065F2C6EC04F003C066F202
:101BF00002C065F201C064F200C063F230C26AF252
:101C00002FC269F22EC268F22DC267F260D603C0FD
:101C10006DF202C06CF201C06BF200C06AF2C8EC57
:101C200003F002C060F201C05FF20201605303E101
:101C30005F51640802E23F9301D03F833F510608A1
:101C40000FE3386B376B480E366F850E356F0A0E13
:101C5000346FD70E336F230E326F790E316F10D081
:101C60003CC238F23BC237F23AC236F239C235F2E0
:101C70006F0E346F120E336F030E326F760E316FAC
:101C80001F2D37D06D6B6C6B200E6B6F810E6A6FE2
:101C900038C271F237C270F236C26FF235C26EF2DC
:101CA00000018BEC03F01BE3D88238C26DF237C21F
:101CB0006CF236C26BF235C26AF20201716B706B64
:101CC000200E6F6F810E6E6F0001D1EC01F003C02A
:101CD00038F202C037F201C036F200C035F202011C
:101CE0003F6B0A0E346FD70E336F230E326F790EAF
:101CF000316F010E616F0001E6EC03F0120002018A
:101D00001F51010A000105E0030A10E0070A1FE065
:101D100023D0C28CCAAC04D0C384CBB401D087DE3C
:101D20000201386B376B366B356B17D0C28CCAAC7F
:101D300004D0C384CBB401D07ADE3CC238F23BC2BB
:101D400037F23AC236F239C235F2020106D084ECDB
:101D500009F0020102D000010201000119EF16F0A2
:101D6000C38002015B6BCBB05B2B5B530DE05A531E
:101D70000BE1200EF66E030EF76E0001AEEC04F0E0
:101D8000C490BC90FFD702015BC25AF200011EEF63
:101D900016F0C3840201586BCBB4582B595313E08F
:101DA000585311E1160EF66E030EF76E0001AEECFD
:101DB00004F0320E0201916F0001AAEC01F0C49010
:101DC000BC90FFD7020158C259F2000120EF16F073
:101DD0006EC272F26DC271F26000CBF9EAFF0201CD
:101DE0007151E96EEF5231E070C274F26FC273F25A
:101DF0006000D3F9EAFF7351E96EEF520BE16D51C8
:101E0000715D006E6E517259036E00C001F0026E7A
:101E100025D011D06000CBF9EAFF7151E96E6F0057
:101E2000BCFF75F26000D3F9EAFF7351E96EEF5021
:101E3000755D01E104D0732BD8B4742BD9D7712B05
:101E4000D8B4722B0001C8D702016D51715D006ECC
:101E50006E517259036E00C001F0026E0001A5EFD1
:101E60000FF06EC272F26DC271F26000CBF9EAFF40
:101E700002017151E96EEF522CE070C274F26FC230
:101E800073F26000D3F9EAFF7351E96EEF521BE081
:101E900072C203F07151E96E60000FF0EAFF6F004B
:101EA000BCFF75F26000D3F9EAFF7351E96EEF50A1
:101EB000755D05E171C201F072C202F00DD0732BA5
:101EC000D8B4742BDED7712BD8B4722B0001CDD7C8
:101ED0000201000E016E026E0001BFEF0FF06EC234
:101EE00070F26DC26FF26000C3F9EAFF02016F5138
:101EF000E96EEF5206E06F2BD8B4702B0001F3D7D8
:101F000002016D516F5D006E6E517059036E00C01D
:101F100001F0026E0001DCEF0FF002016551661165
:101F200004E066C203F0655103D01AC003F01950F3
:101F3000696F03C06AF26AC26EF269C26DF268C26A
:101F400070F267C26FF2000143D7015002016927A6
:101F500002506A236000ABF9EAFF6951E96EEF5263
:101F600004E1000E016E026E32D06AC26EF269C2E6
:101F70006DF268C270F267C26FF2000172D702C0E0
:101F80006CF201C06BF202016B5302E16C530EE084
:101F90006000B3F9EAFF6B51E96EEF6A6B2BD8B4BE
:101FA0006C2B6CC21AF06BC219F00DD06AC26EF2C3
:101FB00069C26DF2000193D7015002016925196EC3
:101FC00002506A211A6E69C201F06AC202F0000171
:101FD00012006F00ABFFE2FF6F00A7FFE1FF016A95
:101FE00000800900F55000A005D0EE5C03E1F55239
:101FF000F8E10FD00090F552F4E1012A00806F0063
:102000008BFFEAFF6F0087FFE9FF0800F552E9E167
:1020100001681DEF12F00900F55214E06F00D8FFBF
:1020200065F26F00DCFF66F2F5503901A7ABFED711
:102030003D01D26F600097F9F6FF60009BF9F7FF52
:102040000001E9D7120009006F00D8FF66F26F00A7
:10205000DCFF67F2F5503901A7ABFED73D01D26F27
:1020600060009BF9F6FF60009FF9F7FF0201652F02
:1020700001D002D00001E7D700011200EF5217E0B3
:102080006F00A8FF66F26F00A4FF65F2EF50390100
:10209000A3A9FED73D01EA6F60009BF9EAFF60004B
:1020A00097F9E9FFE92AD8B4EA2A0001E7D7120034
:1020B000006A016A02016C51D8906DB100260032AD
:1020C00001326DB30026003201326DB500260032B8
:1020D00001326DB70026003201326DB900260032A0
:1020E00001326DBB0026003201326DBD0026003288
:1020F00001326DBF0026003201320001ECEF10F01A
:1021000002016A6B686B0A0E696F676B6551661135
:1021100003E1000E016EC1D06A516A2B6525E96E9C
:10212000000E6621EA6E6F00BCFF6BF26B512D084A
:102130000DE1010E686F6A516A2B6525E96E000E8C
:102140006621EA6E6F00BCFF6BF20DD06B512B085D
:102150000AE16A516A2B6525E96E000E6621EA6E76
:102160006F00BCFF6BF26B512F08D8B08ED06B5153
:102170003908D8A08AD06B5130081FE16A51652513
:10218000E96E000E6621EA6EEF50780809E06A51A8
:102190006525E96E000E6621EA6EEF5058080DE1E4
:1021A000100E696F6A2B6A516A2B6525E96E000E65
:1021B0006621EA6E6F00BCFF6BF269510A081DE1EF
:1021C0006B512F0819E26B51390816E30A0E6C6F38
:1021D00067C26DF200016CD7300E02016B5D012405
:1021E000676F6A516A2B6525E96E000E6621EA6EFB
:1021F0006F00BCFF6BF2E4D748D06951100845E18D
:102200006B51600806E26B517A0803E36B51DF0BF8
:1022100001D06B516B6F6B512F0803E26B51390882
:1022200006E26B51400831E26B5146082EE36B51D8
:102230002F080CE26B51390809E367396C6FF00E17
:102240006C17300E6B5D6C25676F09D067396C6F4A
:10225000F00E6C17410E6B5D0A0F6C25676F6A51AB
:102260006A2B6525E96E000E6621EA6E6F00BCFFE1
:102270006BF26B51600806E26B517A0803E36B5115
:10228000DF0B01D06B516B6FC6D7682D04D069513D
:102290000A0801E1676D67C201F0000165EF12F005
:1022A000015065C267F2640E0201686F0001EAEC3A
:1022B00009F000C065F20150300E08E1020166A38A
:1022C00011D066B70FD066B9200E04D00201669710
:1022D00066996681012601503901A7ABFED73D0101
:1022E000D26F020165C267F20A0E686F0001EAEC64
:1022F00009F000C065F20150300E08E1020166B736
:102300000DD066A10BD066B9200E00010126015048
:102310003901A7ABFED73D01D26F0201300E652710
:1023200065513901A7ABFED73D01D26F0001120004
:102330006F00A8FF6DF26F00A4FF6CF20201663916
:10234000F009686F6827E20F696F320F6B6F665193
:102350000F0B692769276B27E90F6A6F6A276A27BE
:1023600065390F0B6A276B276A376B376B1F6B3723
:1023700065510F0B6B276837070E676F0A0E6A07E8
:102380006B27FDE369076A27FDE368076927FDE31B
:1023900067076827FDE3020EEA6E670EE96E070E17
:1023A0006C156C9DE926000EEA22E9506B0804E1E9
:1023B000EA50020801E16C8DEF50006E08E16CBD3F
:1023C00006D06CB90FD06CB702D0200E03D06C874A
:1023D0006C99300E002600503901A7ABFED73D01A5
:1023E000D26F0201EE506CADE0D700011200020E78
:1023F000EA6E5B0EE96E000E89EC00F00A0009003F
:10240000F550EE6E0009FBE10201666B1F0E656F71
:10241000020E686F5B0E676F00017FDD02C062F223
:1024200001C061F2FE0EF66E020EF76E60008BF9CF
:10243000EAFF600087F9E9FFCCD501500DE0010A01
:10244000D8B4BBD0030AD8B475D1010AD8B42FD2FE
:10245000070AD8B4ECD20ED3AE0EF66E020EF76EAB
:10246000DADDB20EF66E020EF76E040E0201656F33
:102470000001E9DD60008BF9EAFF600087F9E9FF00
:1024800086EC08F0BA0EF66E020EF76E040E02012C
:10249000656F0001E1EC04F060008BF9EAFF600079
:1024A00087F9E9FFEBDD0201666B656B020E686F71
:1024B0005B0E676F000131DD02C062F201C061F2A4
:1024C00062C266F261C265F21BD601C064F202010B
:1024D00064510F0802E20F0E646FD250006ED29E5C
:1024E0003901E16B010EE06F600093F9E3F9E59DBE
:1024F000E59FE585550EE66FAA0EE66FE583E5B329
:10250000FED7E595E59DE58F0050D2120201666B7E
:1025100064C265F20001C6EC04F002016D6B6C6BE5
:10252000200E6B6F840E6A6F03C071F202C070F2EE
:1025300001C06FF200C06EF200010DEC03F003C0A9
:102540003CF202C03BF201C03AF200C039F22F0E59
:102550003901A7ABFED73D01D26F60008BF9EAFFCE
:10256000600087F9E9FF000186EC08F02F0E3901C1
:10257000A7ABFED73D01D26F230E3901A7ABFED723
:102580003D01D26F2F0E3901A3A9FED73D01EA6F9D
:1025900060008BF9EAFF600087F9E9FF00016EDD5A
:1025A0002F0E3901A3A9FED73D01EA6F230E390191
:1025B000A3A9FED73D01EA6F5ED2C20EF66E020EEF
:1025C000F76E29DDC60EF66E020EF76E040E0201DE
:1025D000656F000138DD60008BF9EAFF600087F964
:1025E000E9FF86EC08F02F0E3901A7ABFED73D01BD
:1025F000D26F3FC265F21B0E0201666F000150DE12
:10260000200E3901A7ABFED73D01D26F2F0E390145
:10261000A7ABFED73D01D26F100EE96E24C266F261
:1026200023C265F2000184DE200E3901A7ABFED77C
:102630003D01D26F2F0E3901A7ABFED73D01D26FFE
:10264000100EE96E22C266F221C265F2000170DE50
:10265000200E3901A7ABFED73D01D26F2F0E3901F5
:10266000A7ABFED73D01D26F230E3901A7ABFED732
:102670003D01D26FCE0EF66E020EF76E040E020111
:10268000656F0001E1EC04F060008BF9EAFF600087
:1026900087F9E9FFF3DC2F0E3901A3A9FED73D012D
:1026A000EA6F3FC265F21B0E0201666F000100EC8B
:1026B0000AF0200E3901A3A9FED73D01EA6F2F0EC3
:1026C0003901A3A9FED73D01EA6F100EE96E24C2BD
:1026D00066F223C265F20001EDEC06F0200E39012E
:1026E000A3A9FED73D01EA6F2F0E3901A3A9FED79A
:1026F0003D01EA6F100EE96E22C266F221C265F258
:102700000001EDEC06F0200E3901A3A9FED73D0132
:10271000EA6F2F0E3901A3A9FED73D01EA6F230E00
:102720003901A3A9FED73D01EA6F020E02011F6F16
:102730003D01A1D1D60EF66E020EF76E6CDCDA0EFC
:10274000F66E020EF76E040E0201656F00017BDC6F
:1027500060008BF9EAFF600087F9E9FF86EC08F07A
:102760002F0E3901A7ABFED73D01D26F3FC265F2F4
:102770001B0E0201666F000193DD200E3901A7AB2D
:10278000FED73D01D26F2F0E3901A7ABFED73D0119
:10279000D26F100EE96E24C266F223C265F2000108
:1027A000C7DD200E3901A7ABFED73D01D26F2F0E3A
:1027B0003901A7ABFED73D01D26F100EE96E22C2E0
:1027C00066F221C265F20001B3DD200E3901A7AB2C
:1027D000FED73D01D26F2F0E3901A7ABFED73D01C9
:1027E000D26F230E3901A7ABFED73D01D26FE20EA7
:1027F000F66E020EF76E040E0201656F0001E1EC49
:1028000004F060008BF9EAFF600087F9E9FF36DC2D
:102810002F0E3901A3A9FED73D01EA6F3FC265F231
:102820001B0E0201666F000100EC0AF0200E390158
:10283000A3A9FED73D01EA6F2F0E3901A3A9FED748
:102840003D01EA6F100EE96E24C266F223C265F202
:102850000001EDEC06F0200E3901A3A9FED73D01E1
:10286000EA6F2F0E3901A3A9FED73D01EA6F100EC2
:10287000E96E22C266F221C265F20001EDEC06F0BB
:10288000200E3901A3A9FED73D01EA6F2F0E3901B1
:10289000A3A9FED73D01EA6F230E3901A3A9FED7F4
:1028A0003D01EA6F010E02011F6F3D01E4D0EA0E07
:1028B000F66E020EF76E0BEC10F0EE0EF66E020ED8
:1028C000F76E040E0201656F000123EC10F060004A
:1028D0008BF9EAFF600087F9E9FF86EC08F02F0E1C
:1028E0003901A7ABFED73D01D26F3FC265F21B0E87
:1028F0000201666F0001D4DC200E3901A7ABFED7C0
:102900003D01D26F2F0E3901A7ABFED73D01D26F2B
:10291000100EE96E24C266F223C265F2000108DDE2
:10292000200E3901A7ABFED73D01D26F2F0E390122
:10293000A7ABFED73D01D26F100EE96E22C266F240
:1029400021C265F20001F4DC200E3901A7ABFED7ED
:102950003D01D26F2F0E3901A7ABFED73D01D26FDB
:10296000230E3901A7ABFED73D01D26FF60EF66EEE
:10297000020EF76E040E0201656F0001E1EC04F037
:1029800060008BF9EAFF600087F9E9FF3EEC10F088
:102990002F0E3901A3A9FED73D01EA6F3FC265F2B0
:1029A0001B0E0201666F000100EC0AF0200E3901D7
:1029B000A3A9FED73D01EA6F2F0E3901A3A9FED7C7
:1029C0003D01EA6F100EE96E24C266F223C265F281
:1029D0000001EDEC06F0200E3901A3A9FED73D0160
:1029E000EA6F2F0E3901A3A9FED73D01EA6F100E41
:1029F000E96E22C266F221C265F20001EDEC06F03A
:102A0000200E3901A3A9FED73D01EA6F2F0E39012F
:102A1000A3A9FED73D01EA6F230E3901A3A9FED772
:102A20003D01EA6F020E02011F6F3D0124D0390102
:102A300094810201636B6351050816E3C392BB8264
:102A4000C80E916F0001AAEC01F0C392BB92020E76
:102A50000201656FFA0E916F0001AAEC01F002010C
:102A6000652FF8D7632BE7D7000184EC09F03D010F
:102A700002D000013D0100012BEF16F03901E58F76
:102A8000E59DF86AD29A078E0E01550E3A01BF6F86
:102A9000AA0EBF6FBF91170EE76F0B0EEA6F160EEF
:102AA0000C6F0A0E116F090E126F130E166F550E72
:102AB000BF6FAA0EBF6FBF813901DE6BDB6BDD6BB1
:102AC000060EDF6F600ED96F3D01F39FC49CBC8C76
:102AD000B00EF26FF66B440EF56FF46BF38FDB9F65
:102AE000C398BB88B00EDA6FDE6B440EDD6FDC6B13
:102AF000DB8F02013F6B466B456B3A01406B506BBD
:102B0000606B806B3E01BD6BBE6BBF6BBC6BB96B0A
:102B1000BA6BBB6BB86B196A1A6A0201446B010E7F
:102B2000476F486B496B4A6B4B6B4C6B4D6B4E6BF5
:102B30004F6B506B516B526B536B546B556B566BA9
:102B4000576B586B596B5A6FC490BC80040E5B6F07
:102B5000FA0E916F0001AAEC01F002015B2FF8D789
:102B6000000E3E01FD6F2F0E3A01406F000E506FB8
:102B7000606F806F080E3E01FA6FFB6BFF6BF46BAA
:102B8000F36BEC6B940EF86F010EB56E270EB26E00
:102B9000B36AB46AAF6AAD6A010EAE6E3F0EAB6E39
:102BA000800EAC6EC494BC947E9E0C0E7E6EFC0EA9
:102BB0003F015E17010E5E137E8EC492BC927A9E18
:102BC0000C0E7A6EF30E5E17040E5E137A8E7D6A1B
:102BD0007C6A796A786A800E3A01516F0001BEEF13
:102BE00001F00201616B0001E6EC03F094EF04F0E8
:102BF0004CEF07F02A0EF66E030EF76EAEEC04F003
:102C00003D01D051390197899481C00ED212000143
:102C1000FAEC07F01AEF08F0CDEF08F039019481D3
:102C2000020120A10ED02091000122EF0CF07FEFD5
:102C30000EF0C384CBB402D0B0EF0EF0C9EF0EF0AB
:102C400002010001FAEC07F002011E51800805E1C3
:0E2C50000001F7EF11F002011E9FE3D7030011
:020000040030CA
:0A000000ECFF37FF9FFFFFDFFFFF5B
:00000001FF
;PIC18F26K83
;CRC=3B59  CREATED="24-Jul-23 09:29"
