:0400000056EF3AF08D
:0800080000C004F001C005F086
:1000100002C006F0076A03C008F000016F00D4FFB9
:1000200009F06F00D8FF0AF06F00DCFF0BF06F00E3
:10003000E0FF0CF0390191A121EF00F0A1B186EFB2
:1000400002F093A727EF00F0A3B77BEF00F094A195
:100050002DEF00F0A4B15BEF02F0600027F0F5FF98
:1000600060002BF0F6FF60002FF0F7FF600033F028
:10007000F8FF04C000F005C001F006C002F0078ED2
:1000800008C003F01100F76A9A0FF66E000EF7220F
:10009000000EF86E0900F55012002F002D2D2D0DC9
:1000A00000002424240047530D0047520D0039015D
:1000B000A3A7FED73D01F951226EE851016E22A29D
:1000C00004D0F299F783F993F289000186EF00F0EA
:1000D0000801575159036F00CCFF01F06F00D0FFAA
:1000E00000F05A03F350002658515903F3500020F2
:1000F000026E00011200000122A207D04C0E39014D
:10010000A6A7FED73D01D26F0001D1D701C055F897
:1001100008015551250805E005010C53D8B434D128
:10012000080123B20ED005010C510508D8A402D055
:10013000080107D00001E66B050E05010C6F3CD1EC
:10014000080105010C5304E10C2B020E0D6F19D1AF
:100150000C2D4ED0080155512C0824E0586BE7C0F7
:1001600057F85A6B210E596F0001B2DF02C058F8E0
:1001700001C057F8100E08015727000E582305013B
:100180000D510D2B08015725016E000E5821036EED
:100190000150E80FE96E000E0320EA6E620057F18D
:1001A000EFFF24D0020E05010C6F0801586BE7C069
:1001B00057F85A6B210E596F00018ADF02C058F8B8
:1001C00001C057F8100E08015727000E58230501EB
:1001D0000D5108015725016E000E5821036E015084
:1001E000E80FE96E000E0320EA6EEF6ACBD005013E
:1001F0000C51020846E1080155512C081BE0586BD0
:10020000E7C057F85A6B210E596F000161DF02C039
:1002100058F801C057F8100E08015727000E582350
:10022000E80E5725E96E000E5821EA6E620057F17C
:10023000EFFF25D0586BE7C057F85A6B210E596F66
:10024000000146DF02C058F801C057F8100E08013F
:100250005727000E5823010E5725016E000E582116
:10026000036E0150E80FE96E000E0320EA6E620093
:1002700057F1EFFF030E05010C6F0D6B080182D0E3
:1002800005010C51030848E1080155512C0825E1EE
:1002900005010D531EE00801586BE7C057F85A6B73
:1002A000210E596F000114DF01C057F805010D51EF
:1002B00008010124016E000E0220036E0150E80FB8
:1002C000E96E000E0320EA6EEF6A0001E72B0501DC
:1002D0000D6B040E0C6F1FD00801586BE7C057F868
:1002E0005A6B210E596F0001F3DE02C058F801C0AD
:1002F00057F805010D510D2B0124016E000E02204F
:10030000036E0150E80FE96E000E0320EA6E6200F2
:1003100057F1EFFF050135D00C5104080DE108013C
:100320005551250803E055510D0804E105010C6BFA
:100330000D6B080127D005010C51050822E10801C9
:10034000555125080FE105010C6B0D6B036A000187
:10035000E651A60FE96E000E0320EA6EEF6AE66929
:1003600010D008010001E65140080BE0E651E62BF1
:10037000036AA60FE96E000E0320EA6E620057F1D1
:10038000EFFF080118D00501036A0001A451240FF2
:10039000E96E000E0320EA6E620057F1EFFFA4C081
:1003A00056F8010EA4257F0BA46FA551A45D02E1B0
:1003B00056C8A4F0080105013901A39700012DEFEB
:1003C00000F02424240053422C30390D00000D434A
:1003D00048414E47494E4720424155440D0A0000CE
:1003E00053532C43300D000053522C313030300D1C
:1003F0000000505A0D00532D2C424C452D43656E84
:100400007472616C0D0047530D00446973636F6E25
:100410006E65637465640D0A00004B2C310D00009D
:100420004C430D0043490D004348572C25303458A8
:100430002C25730D00004348522C253034580D00F4
:100440004572726F72202D205363616E0D0A000099
:100450004572726F7220436F6E6E656374696E676A
:100460000D0A0000436F6E6E65637465640D0A00CB
:100470000A0D20537461727420446973706C617941
:1004800020436F6E666967000A0D20456E64204444
:100490006973706C617920436F6E666967000A0D3D
:1004A00020436C65617200000A0D204F4646000033
:1004B0000A0D204F4E000001D80EB16EFE0EB06E38
:1004C000000005010E813901A49100012DEF00F01B
:1004D0000900F5521AE06F00D8FF55F86F00DCFFF5
:1004E00056F86F00E0FF57F8F5503901A6A7FED780
:1004F0003D01D26F620057F1F6FF62005BF1F7FF3A
:1005000062005FF1F8FF0001E3D7120000012C0E3A
:10051000F66E050EF76E000EF86EDADFC29ABA9A22
:10052000FFD73901A19100012DEF00F00A0D2053F2
:100530006C656570206E6F7700000A0D2046756C43
:100540006C000A0D2025752C20256C75202C20258B
:100550006C752C20256C752C20256C75200024735F
:100560006C6565702F230D002048616C6F20486119
:100570006E647365742056657220330D0A000A0D8F
:100580002043686172676572204F6E200A0D00007B
:100590000A0D2043686172676572204F6666200A03
:1005A0000D000A0D206A3D2575200A0D0000246FFC
:1005B0006E2F230D0000246F66662F230D005265F9
:1005C0006D6F746520446174613D25730D0A0000F0
:1005D000C29ABA8AC39ABB8AC29CBA8C39019481E6
:1005E0009387C00ED212000110EF3BF0050EEA6EA9
:1005F000A60EE96EEF500DE00A0E016E006A002EA5
:10060000FED7012EFBD75F0E006E002EFED7EF2E19
:10061000F3D71200C690BE80C692BE82C394BB942C
:10062000C56A620053F1BDFF00D0C692BE9200D0F1
:10063000C692BE821200C690BE80C692BE82C3948D
:10064000BB84C56A620053F1BDFF00D0C692BE9262
:1006500000D0C692BE821200700EF66E040EF76EC7
:10066000000EF86E1B6AD2BE1B8ED29E31DF1BBEFF
:10067000D28EC694BE94C690BE80C692BE82C398E7
:10068000BB88640E0501A66F0001B0DF110E0801E2
:10069000546F0001BFDF640E0501A66F0001A6DFE5
:1006A000280E0801546F0001B5DF640E0501A66F26
:1006B00000019CDF260E0801546F0001ABDF040E21
:1006C0000801546F0001B7DFF20E0801546F0001FA
:1006D000A1DF0801546B0001AEDFB10E0801546FB9
:1006E000000198DF0A0E0801546F0001A4DF140E08
:1006F0000801546F00019FDFC00E0801546F000114
:1007000089DF0A0E0801546F000195DF0801546B60
:10071000000191DFC10E0801546F00017BDF020E62
:100720000801546F000187DFC50E0801546F0001F6
:1007300071DF2F0E0801546F00017DDF3E0E0801AE
:10074000546F000178DFC70E0801546F000162DFAB
:10075000400E0801546F00016EDF2A0E0801546F2D
:10076000000158DF0801546B000165DF0801546B7C
:10077000000161DF0801546B00015DDF7F0E08019D
:10078000546F000158DF2B0E0801546F000142DF47
:100790000801546B00014FDF0801546B00014BDF6F
:1007A0000801546B000147DF9F0E0801546F0001E0
:1007B00042DF360E0801546F00012CDFC80E08011D
:1007C000546F000138DF3A0E0801546F000122DF38
:1007D000060E0801546F00012EDF290E0801546F28
:1007E000000118DF640E0501A66F0001FFDE2C0E6C
:1007F0000801546F00010EDF640E0501A66F0001B1
:10080000F5DE880EF66E040EF76E000EF86E1B6AAB
:10081000D2BE1B8ED29E5CDE1BBED28E12EF3BF090
:100820002C0E0801546F0001F5DE0501576B566B65
:1008300057514F0811E3080154690001FCDE08011B
:10084000546B0001F8DE0801546B0001F4DE050171
:10085000562BD8B4572BECD7576B566B57514F08C4
:1008600011E30801546B0001E6DE08015469000140
:10087000E2DE0801546B0001DEDE0501562BD8B420
:10088000572BECD7576B566B57514F0811E30801A4
:10089000546B0001D0DE0801546B0001CCDE08016E
:1008A00054690001C8DE0501562BD8B4572BECD78C
:1008B000576B566B57514F0811E30801546B0001F9
:1008C000BADE0801546B0001B6DE0801546B00016A
:1008D000B2DE0501562BD8B4572BECD7000114EF2C
:1008E0003BF0020E05015A5F0CE3050EEA6E5A0E4C
:1008F000E96EEF5006E003D000D000D00000EF2EEC
:10090000FBD7000112008E0E006E5BC501F05AC5C8
:1009100002F0036A015209E102C001F0026A080E06
:10092000005E015202E1006A08D0D89001BE04D0F6
:10093000023601360006F9D7019E120005015A5110
:10094000D8B474D0006E5E51D8B470D0002604E3E1
:10095000810E00266BE204D07F0E005E67E366E046
:100960005BC562F55F51621B5B8F5F8F5D516103F9
:100970006F00D0FF64F55C5160036F00D0FF03F09F
:100980006F00CCFF63F56103F3506427F4506323D9
:10099000000E03225D516003F3506427F45063237B
:1009A000000E026A032202225B516103F3506327A7
:1009B000F4500322000E02225B516003F350032621
:1009C000F4500222000E016A01225D515F03F350D0
:1009D0006327F4500322000E022201225C515F03C0
:1009E000F3500326F4500222000E01225B515F03F4
:1009F000F3500226F4500122002A01BE05D06337CD
:100A00000336023601360006000E63AF0AD0032A11
:100A100002220122015005E1025003E1035001E1ED
:100A2000002A62BF018E62AF019E04D0006A016A93
:100A3000026A036A000112008E0E006E05015A510F
:100A4000005E5BC502F05CC501F0028E005209E059
:100A5000D890025202E1015204E002320132002E2B
:100A6000F7D75BAF05D0011E021E012AD8B4022AB7
:100A700000011200010E3E01F16F640E05015A6F74
:100A800000012FDF3E01F8810000F8B1FED76F00B2
:100A9000C0FB02F06F00BCFB01F00230036E0130BE
:100AA000026E033202323F0E031602C05AF503C033
:100AB0005BF5000128DF03C059F502C058F501C0FD
:100AC00057F500C056F559C55DF558C55CF557C5D5
:100AD0005BF556C55AF53D0E0501616F0A0E606F54
:100AE000170E5F6F7E0E5E6F000128DF03C05DF59D
:100AF00002C05CF501C05BF500C05AF59DDF02C085
:100B00001AF501C019F53E01F16B640E05015A6F2B
:100B10000001E7DE3E01F8810000F8B1FED76F006A
:100B2000C0FB02F06F00BCFB01F00230036E01302D
:100B3000026E033202323F0E031602C05AF503C0A2
:100B40005BF50001E0DE03C059F502C058F501C0B5
:100B500057F500C056F559C55DF558C55CF557C544
:100B60005BF556C55AF51F0E0501616F850E606F66
:100B70003B0E5F6F800E5E6F0001E0DE03C05DF52F
:100B800002C05CF501C05BF500C05AF555DF02C03C
:100B90001CF501C01BF5120009006F00D8FF58F5C5
:100BA0006F00DCFF59F56F00E0FF5AF5F550390191
:100BB000A6A7FED73D01D26F610063F5F6FF610085
:100BC00067F5F7FF61006BF5F8FF0501572F01D0BE
:100BD00002D00001E1D70001120005015A51016A5B
:100BE000595D03E259C500F00CD0006A080E5B6F36
:100BF000593700365A51005CD8B0006E01365B2F71
:100C0000F7D700011200015057C559F5640E0501D0
:100C10005A6F0001E2DF00C057F50150300E08E1C5
:100C2000050158A311D058B70FD058B9200E04D0E1
:100C30000501589758995881012601503901A6A7F6
:100C4000FED73D01D26F050157C559F50A0E5A6FFF
:100C50000001C3DF00C057F50150300E08E1050167
:100C600058B70DD058A10BD058B9200E000101265D
:100C700001503901A6A7FED73D01D26F0501300E04
:100C8000572757513901A6A7FED73D01D26F000162
:100C900012006F00A8FF5EF56F00A4FF5DF505016F
:100CA0005739F009596F5927E20F5A6F320F5C6FAD
:100CB00057510F0B5A275A275C27E90F5B6F5B27A9
:100CC0005B2756390F0B5B275C275B375C375C1F54
:100CD0005C3756510F0B5C275937070E586F0A0EB9
:100CE0005B075C27FDE35A075B27FDE359075A279B
:100CF000FDE358075927FDE3050EEA6E580EE96E2D
:100D0000070E5D155D9DE926000EEA22E9505C089C
:100D100004E1EA50050801E15D8DEF50006E08E145
:100D20005DBD06D05DB90FD05DB702D0200E03D0F7
:100D30005D875D99300E002600503901A6A7FED7C9
:100D40003D01D26F0501EE505DADE0D7000112000C
:100D50002A0E0801546F00015DDC50C854F86BDCAA
:100D600051C854F868DC52C854F865DC53C854F8CC
:100D700062DC12002B0E0801546F00014BDC50C8DE
:100D800054F859DC51C854F856DC52C854F853DCB6
:100D900053C854F850DC12002C0E0801546F0001A7
:100DA00039DC1200400E0501596F565303E15A0E0B
:100DB0005A6F02D08C0E5A6F0E0E595D06019A6F53
:100DC0000E0E0501592506019B6F0801506B9AC64E
:100DD00051F8526B536F0001BBDF050E05015A5DE0
:100DE00006019A6F050E05015A2506019B6F080141
:100DF000506B9AC651F8526B536F0001BBDFCCDFCA
:100E0000010E05015B6F5C6F5D6F5E6F5F6F606F02
:100E1000616F626F636F646F656F666F676F686F36
:100E2000696F6A6F6B6F6C6F6D6F6E6F6F6F706FE6
:100E3000716F726F736F746F756F766B776B786F9E
:100E4000030E796F7A6F7B6F7C6F7D6F7E6F7F6B28
:100E5000806B816B826B836B846B856B866B876B1E
:100E6000886B896B8A6B8B6B8C6B8D6B8E6B8F6BCE
:100E7000906B916B010E926F936B946B956F030E59
:100E8000966F976F986F996F9A6F9B6F9C6B9D6B26
:100E90009E6B9F6BA06BA16BA26BA36BA46BA56BEE
:100EA000A66BA76BA86BA96BAA6BAB6BAC6BAD6B9E
:100EB000AE6B010EAF6FB06BB16BB26F030EB36F61
:100EC000B46FB56FB66FB76FB86FB96BBA6BBB6BFA
:100ED000BC6BBD6BBE6BBF6BC06BC16BC26BC36BBE
:100EE000C46BC56BC66BC76BC86BC96BCA6BCB6B6E
:100EF000010ECC6FCD6FCE6FCF6F030ED06FD16F61
:100F0000D26FD36FD46FD56FD66BD76BD86BD96BCD
:100F1000DA6BDB6BDC6BDD6BDE6BDF6BE06BE16B8D
:100F2000E26BE36BE46BE56BE66BE76BE86B010E82
:100F3000E96FEA6FEB6FEC6F030EED6FEE6FEF6F23
:100F4000F06FF16FF26FF36BF46BF56BF66BF76BA1
:100F5000F86BF96BFA6BFB6BFC6BFD6BFE6BFF6B5D
:100F60000601006B016B026B036B046B056B010EDA
:100F7000066F076F086F096F030E0A6F0B6F0C6F18
:100F80000D6F0E6F0F6F106B116B126B136B146B79
:100F9000156B166B176B186B196B1A6B1B6B1C6B35
:100FA0001D6B1E6B1F6B206B216B226B010E236F61
:100FB000246F256F266F030E276F286F296F2A6F06
:100FC0002B6F2C6F2D6B2E6B2F6B306B316B326B4D
:100FD000336B346B356B366B376B386B396B3A6B05
:100FE0003B6B3C6B3D6B3E6B3F6B010E406F416F4B
:100FF000426F436F030E446F456F466F476F486FF4
:10100000496F4A6B4B6B4C6B4D6B4E6B4F6B506B20
:10101000516B526B536B546B556B566B576B586BD4
:10102000596B5A6B5B6B5C6B010E5D6F5E6B5F6B3C
:10103000606F030E616F626F636F646F656F666FE1
:10104000676B686B696B6A6B6B6B6C6B6D6B6E6BF4
:101050006F6B706B716B726B736B746B756B766BA4
:10106000776B786B796B010E7A6F7B6B7C6B7D6F26
:101070007E6F7F6F806F816F826F836F846F856FEC
:10108000866F876F886F896F8A6F8B6F8C6F8D6F9C
:101090008E6F8F6F906F916F926F936F946F956F4C
:1010A000966F976F986B996B0501586B576B5851FA
:1010B000010854E303E157513F0850E35B0E572505
:1010C000E96E050E5821EA6EEF2C10D00801546924
:1010D00000011BEC03F00801546900011BEC03F054
:1010E0000801546900011BEC03F005015B0E572554
:1010F000E96E050E5821EA6EEF5210E10801546BBB
:1011000000011BEC03F00801546B00011BEC03F021
:101110000801546B00011BEC03F005015B0E572521
:10112000E96E050E5821EA6EEF50030813E1600ED8
:101130000801546F00011BEC03F0600E0801546FAE
:1011400000011BEC03F0600E0801546F00011BEC62
:1011500003F00501572BD8B4582BA9D70001120072
:10116000400E0501596F565303E15A0E5A6F02D0D3
:101170008C0E5A6F0E0E595D06019A6F0E0E050108
:10118000592506019B6F0801506B9AC651F8526BA6
:10119000536F0001DDDD050E05015A5D06019A6FF2
:1011A000050E05015A2506019B6F0801506B9AC672
:1011B00051F8526B536F0001DDDDEEDD010E0501CC
:1011C0005B6F5C6F5D6F5E6F5F6F606F616F626FB3
:1011D000636F646F656F666F676F686F696F6A6F63
:1011E0006B6F6C6F6D6F6E6F6F6F706F716F726F13
:1011F000736F746F756F766B776B786F030E796FA3
:101200007A6F7B6F7C6F7D6F7E6F7F6F806F816F7A
:10121000826F836F846F856F866B876B886B896B3A
:101220008A6B8B6B8C6B8D6B8E6B8F6B906B916BFA
:10123000010E926F936B946B956F030E966F976F81
:10124000986F996F9A6F9B6F9C6F9D6F9E6F9F6F4A
:10125000A06FA16FA26FA36BA46BA56BA66BA76B0E
:10126000A86BA96BAA6BAB6BAC6BAD6BAE6B010ED5
:10127000AF6FB06BB16BB26F030EB36FB46FB56F7E
:10128000B66FB76FB86FB96FBA6FBB6FBC6FBD6F1A
:10129000BE6FBF6FC06BC16BC26BC36BC46BC56BE2
:1012A000C66BC76BC86BC96BCA6BCB6B010ECC6FBF
:1012B000CD6FCE6FCF6F030ED06FD16FD26FD36F64
:1012C000D46FD56FD66FD76FD86FD96FDA6FDB6FEA
:1012D000DC6FDD6BDE6BDF6BE06BE16BE26BE36BB6
:1012E000E46BE56BE66BE76BE86B010EE96FEA6FA9
:1012F000EB6FEC6F030EED6FEE6FEF6FF06FF16F52
:10130000F26FF36FF46FF56FF66FF76FF86FF96FB9
:10131000FA6BFB6BFC6BFD6BFE6BFF6B0601006BEE
:10132000016B026B036B046B056B010E066F076F9D
:10133000086F096F030E0A6F0B6F0C6F0D6F0E6F46
:101340000F6F106F116F126F136F146F156F166F91
:10135000176B186B196B1A6B1B6B1C6B1D6B1E6B61
:101360001F6B206B216B226B010E236F246F256F87
:10137000266F030E276F286F296F2A6F2B6F2C6F34
:101380002D6F2E6F2F6F306F316F326F336F346B65
:10139000356B366B376B386B396B3A6B3B6B3C6B31
:1013A0003D6B3E6B3F6B010E406F416F426F436F71
:1013B000030E446F456F466F476F486F496F4A6F22
:1013C0004B6F4C6F4D6F4E6F4F6F506F516B526B39
:1013D000536B546B556B566B576B586B596B5A6B01
:1013E0005B6B5C6B010E5D6F5E6B5F6B606F030E22
:1013F000616F626F636F646F656F666F676F686F51
:10140000696F6A6F6B6F6C6F6D6F6E6B6F6B706B0C
:10141000716B726B736B746B756B766B776B786BD0
:10142000796B010E7A6F7B6B7C6B7D6F7E6F7F6F4C
:10143000806F816F826F836F846F856F866F876F18
:10144000886F896F8A6F8B6F8C6F8D6F8E6F8F6FC8
:10145000906F916F926F936F946F956F966F976F78
:10146000986B996B0501586B576B5851010854E301
:1014700003E157513F0850E35B0E5725E96E050E17
:101480005821EA6EEF2C10D00801546900011BECC2
:1014900003F00801546900011BEC03F008015469D2
:1014A00000011BEC03F005015B0E5725E96E050EEC
:1014B0005821EA6EEF5210E10801546B00011BEC59
:1014C00003F00801546B00011BEC03F00801546B9E
:1014D00000011BEC03F005015B0E5725E96E050EBC
:1014E0005821EA6EEF50030813E1600E0801546FB3
:1014F00000011BEC03F0600E0801546F00011BECAF
:1015000003F0600E0801546F00011BEC03F00501AD
:10151000572BD8B4582BA9D700011200400E050153
:10152000596F565303E15A0E5A6F02D08C0E5A6F00
:101530000E0E595D06019A6F0E0E05015925060122
:101540009B6F0801506B9AC651F8526B536F0001A4
:10155000A8EC06F0050E05015A5D06019A6F050E0E
:1015600005015A2506019B6F0801506B9AC651F878
:10157000526B536F0001BAEC06F00EDC010E050150
:101580005B6F5C6F5D6F5E6F5F6F606F616F626FEF
:10159000636F646F656F666F676F686F696F6A6F9F
:1015A0006B6F6C6F6D6F6E6F6F6F706F716F726F4F
:1015B000736F746F756F766B776B786F030E796FDF
:1015C0007A6F7B6F7C6F7D6F7E6F7F6F806F816FB7
:1015D000826F836F846F856F866F876F886F896F67
:1015E0008A6F8B6F8C6F8D6B8E6B8F6B906B916B2B
:1015F000010E926F936B946B956F030E966F976FBE
:10160000986F996F9A6F9B6F9C6F9D6F9E6F9F6F86
:10161000A06FA16FA26FA36FA46FA56FA66FA76F36
:10162000A86FA96FAA6BAB6BAC6BAD6BAE6B010E09
:10163000AF6FB06BB16BB26F030EB36FB46FB56FBA
:10164000B66FB76FB86FB96FBA6FBB6FBC6FBD6F56
:10165000BE6FBF6FC06FC16FC26FC36FC46FC56F06
:10166000C66FC76BC86BC96BCA6BCB6B010ECC6FF7
:10167000CD6FCE6FCF6F030ED06FD16FD26FD36FA0
:10168000D46FD56FD66FD76FD86FD96FDA6FDB6F26
:10169000DC6FDD6FDE6FDF6FE06FE16FE26FE36FD6
:1016A000E46BE56BE66BE76BE86B010EE96FEA6FE5
:1016B000EB6FEC6F030EED6FEE6FEF6FF06FF16F8E
:1016C000F26FF36FF46FF56FF66FF76FF86FF96FF6
:1016D000FA6FFB6FFC6FFD6FFE6FFF6F0601006F0F
:1016E000016B026B036B046B056B010E066F076FDA
:1016F000086F096F030E0A6F0B6F0C6F0D6F0E6F83
:101700000F6F106F116F126F136F146F156F166FCD
:10171000176F186F196F1A6F1B6F1C6F1D6F1E6B81
:101720001F6B206B216B226B010E236F246F256FC3
:10173000266F030E276F286F296F2A6F2B6F2C6F70
:101740002D6F2E6F2F6F306F316F326F336F346F9D
:10175000356F366F376F386F396F3A6F3B6B3C6B55
:101760003D6B3E6B3F6B010E406F416F426F436FAD
:10177000030E446F456F466F476F486F496F4A6F5E
:101780004B6F4C6F4D6F4E6F4F6F506F516F526F6D
:10179000536F546F556F566F576F586B596B5A6B29
:1017A0005B6B5C6B010E5D6F5E6B5F6B606F030E5E
:1017B000616F626F636F646F656F666F676F686F8D
:1017C000696F6A6F6B6F6C6F6D6F6E6F6F6F706F3D
:1017D000716F726F736F746B756B766B776B786B01
:1017E000796B010E7A6F7B6B7C6B7D6F7E6F7F6F89
:1017F000806F816F826F836F846F856F866F876F55
:10180000886F896F8A6F8B6F8C6F8D6F8E6F8F6F04
:10181000906F916F926F936F946F956F966F976FB4
:10182000986B996B0501586B576B5851010854E33D
:1018300003E157513F0850E35B0E5725E96E050E53
:101840005821EA6EEF2C10D00801546900011BECFE
:1018500003F00801546900011BEC03F0080154690E
:1018600000011BEC03F005015B0E5725E96E050E28
:101870005821EA6EEF5210E10801546B00011BEC95
:1018800003F00801546B00011BEC03F00801546BDA
:1018900000011BEC03F005015B0E5725E96E050EF8
:1018A0005821EA6EEF50030813E1600E0801546FEF
:1018B00000011BEC03F0600E0801546F00011BECEB
:1018C00003F0600E0801546F00011BEC03F00501EA
:1018D000572BD8B4582BA9D7000112000501565335
:1018E00005E15A0E5A6F400E596F04D08C0E5A6F94
:1018F000400E596F0E0E595D06019A6F0E0E0501CE
:10190000592506019B6F0801506B9AC651F8526B1E
:10191000536F0001A8EC06F0050E05015A5D0601A3
:101920009A6F050E05015A2506019B6F0801506B41
:101930009AC651F8526B536F0001BAEC06F0CCEC2A
:1019400006F0010E05015B6F5C6F5D6F5E6F5F6F90
:10195000606F616F626F636F646F656F666F676FF3
:10196000686F696F6A6F6B6F6C6F6D6F6E6F6F6FA3
:10197000706F716F726F736F746F756F766B776B5B
:10198000786F030E796F7A6F7B6F7C6F7D6F7E6FE0
:101990007F6F806F816F826F836F846F856F866FBB
:1019A000876F886F896F8A6F8B6F8C6F8D6F8E6F6B
:1019B0008F6F906F916F010E926F936B946B956F19
:1019C000030E966F976F986F996F9A6F9B6F9C6FCE
:1019D0009D6F9E6F9F6FA06FA16FA26FA36FA46F8B
:1019E000A56FA66FA76FA86FA96FAA6FAB6FAC6F3B
:1019F000AD6FAE6F010EAF6FB06BB16BB26F030E18
:101A0000B36FB46FB56FB66FB76FB86FB96FBA6FAA
:101A1000BB6FBC6FBD6FBE6FBF6FC06FC16FC26F5A
:101A2000C36FC46FC56FC66FC76FC86FC96FCA6F0A
:101A3000CB6F010ECC6FCD6FCE6FCF6F030ED06F1B
:101A4000D16FD26FD36FD46FD56FD66FD76FD86F7A
:101A5000D96FDA6FDB6FDC6FDD6FDE6FDF6FE06F2A
:101A6000E16FE26FE36FE46FE56FE66FE76FE86FDA
:101A7000010EE96FEA6FEB6FEC6F030EED6FEE6F27
:101A8000EF6FF06FF16FF26FF36FF46FF56FF66F4A
:101A9000F76FF86FF96FFA6FFB6FFC6FFD6FFE6FFA
:101AA000FF6F0601006F016F026F036F046F056F18
:101AB000010E066F076F086F096F030E0A6F0B6F39
:101AC0000C6F0D6F0E6F0F6F106F116F126F136F22
:101AD000146F156F166F176F186F196F1A6F1B6FD2
:101AE0001C6F1D6F1E6F1F6F206F216F226F010E05
:101AF000236F246F256F266F030E276F286F296FC2
:101B00002A6F2B6F2C6F2D6F2E6F2F6F306F316FF1
:101B1000326F336F346F356F366F376F386F396FA1
:101B20003A6F3B6F3C6F3D6F3E6F3F6F010E406FF2
:101B3000416F426F436F030E446F456F466F476FAF
:101B4000486F496F4A6F4B6F4C6F4D6F4E6F4F6FC1
:101B5000506F516F526F536F546F556F566F576F71
:101B6000586F596F5A6F5B6F5C6F010E5D6F5E6BE4
:101B70005F6B606F030E616F626F636F646F656FA1
:101B8000666F676F686F696F6A6F6B6F6C6F6D6F91
:101B90006E6F6F6F706F716F726F736F746F756F41
:101BA000766F776F786F796F010E7A6F7B6B7C6BD6
:101BB0007D6F7E6F7F6F806F816F826F836F846FA9
:101BC000856F866F876F886F896F8A6F8B6F8C6F59
:101BD0008D6F8E6F8F6F906F916F926F936F946F09
:101BE000956F966F976F986B996B0501586B576B54
:101BF0005851010854E303E157513F0850E35B0E8D
:101C00005725E96E050E5821EA6EEF2C10D0080119
:101C1000546900011BEC03F00801546900011BEC3E
:101C200003F00801546900011BEC03F005015B0E91
:101C30005725E96E050E5821EA6EEF5210E10801B2
:101C4000546B00011BEC03F00801546B00011BEC0A
:101C500003F00801546B00011BEC03F005015B0E5F
:101C60005725E96E050E5821EA6EEF50030813E17F
:101C7000600E0801546F00011BEC03F0600E0801B8
:101C8000546F00011BEC03F0600E0801546F00015B
:101C90001BEC03F00501572BD8B4582BA9D7000132
:101CA0001200C284CAB40BD005014F6B61002BF542
:101CB0007DFF610027F57CFF506B53D100010501CA
:101CC0004F51000A000109E0010A15E0030AD8B4E7
:101CD00056D0010AD8B48ED096D0010E05014A6FB5
:101CE0009C0E496F4E6B4D6B010E4F6F506B4C6BE2
:101CF0003C0E4B6F89D005014C511C5D09E303E19B
:101D00004B511B5D05E34B511B5F4C511C5B02D0DB
:101D10001C6B1B6B1C530DE11B51DA080AE34A5381
:101D200003E149511E0804E2020E495F000E4A5BBE
:101D300008D01C5303E11B51E10803E2492BD8B43E
:101D40004A2B1A51000805E2FF0A10E119519908BF
:101D50000DE34E511B0805E2FF0A08E14D51200832
:101D600005E34A5308E149511E0805E3020E4F6F8F
:101D70004E6B4D6B03D04D2BD8B44E2B45D0050187
:101D80001A51000808E2FF0A03E119519A0803E218
:101D9000492BD8B44A2B1C5303E11B51640810E2B1
:101DA0004E511B0805E2FF0A0BE14D51200808E3E4
:101DB0001A5100081BE2FF0A03E11951990816E2C3
:101DC000030E4F6F3A0EF66E050EF76E000EF86EAC
:101DD0001B6AD2BE1B8ED29E000168EC02F01BBEB5
:101DE000D28E010E05014A6F9C0E496F4D2BD8B45F
:101DF0004E2B0AD0010E05014A6F9C0E496FC29C02
:101E0000BA8C02D00001050161002BF57DFF610055
:101E100027F57CFF420EF66E050EF76E000EF86E8B
:101E2000030E576F0001CCEC05F04FC557F51B0EA4
:101E30000501586F000103EC06F02C0E3901A6A72E
:101E4000FED73D01D26F200E3901A6A7FED73D0176
:101E5000D26F100EE96E4AC557F549C556F5000117
:101E600049EC06F04C0EF66E050EF76E000EF86E9D
:101E7000030E0501576F0001CCEC05F0100EE96E62
:101E80001AC557F519C556F549EC06F02C0E39015F
:101E9000A6A7FED73D01D26F200E3901A6A7FED717
:101EA0003D01D26F100EE96E1CC557F51BC556F5E6
:101EB000000149EC06F02C0E3901A6A7FED73D0122
:101EC000D26F200E3901A6A7FED73D01D26F100EAA
:101ED000E96E4CC557F54BC556F5000149EC06F0C7
:101EE000200E3901A6A7FED73D01D26F05014F5143
:101EF000030831E05051000A000107E0010A0EE03A
:101F0000030A15E0010A1CE024D0010E0501566FFA
:101F10000001D2EC06F00501502B1CD0010E05018A
:101F2000566F0001B0EC08F00501502B13D0010EE4
:101F30000501566F00018EEC0AF00501502B0AD006
:101F4000010E0501566F0001C9DC0501506B02D07E
:101F50000001050106D0010E566F0001BFDC05012E
:101F6000506B00011200006A016A0501DA51D89035
:101F7000DBB1002600320132DBB300260032013231
:101F8000DBB5002600320132DBB700260032013219
:101F9000DBB9002600320132DBBB00260032013201
:101FA000DBBD002600320132DBBF002600320132E9
:101FB00000011200320E05015A6F5B6B5C6F050E5B
:101FC0005D6F310E5E6F0A0E5F6F300E606F0F0E29
:101FD000616F2E0E626F130E636F2C0E646F180EFE
:101FE000656F290E666F1C0E676F260E686F200ED8
:101FF000696F230E6A6F240E6B6F1F0E6C6F270EB6
:102000006D6F1B0E6E6F2A0E6F6F170E706F2D0E99
:10201000716F120E726F2F0E736F0D0E746F300E84
:10202000756F080E766F310E776F040E786F320E73
:10203000796F7A697B6FFA0E7C6F320E7D6FF50EC9
:102040007E6F310E7F6FF00E806F2F0E816FEB0E63
:10205000826F2D0E836FE70E846F2B0E856FE30E5C
:10206000866F280E876FDF0E886F250E896FDB0E57
:102070008A6F220E8B6FD80E8C6F1E0E8D6FD50E51
:102080008E6F1A0E8F6FD30E906F150E916FD10E4B
:10209000926F110E936FCF0E946F0C0E956FCF0E43
:1020A000966F070E976FCE0E986F020E996FCE0E39
:1020B0009A6FFD0E9B6FCF0E9C6FF80E9D6FD00E2A
:1020C0009E6FF30E9F6FD10EA06FEE0EA16FD30E19
:1020D000A26FEA0EA36FD60EA46FE60EA56FD80E00
:1020E000A66FE10EA76FDC0EA86FDE0EA96FDF0EE4
:1020F000AA6FDA0EAB6FE30EAC6FD70EAD6FE70EC3
:10210000AE6FD40EAF6FEC0EB06FD20EB16FF10E9A
:10211000B26FD00EB36FF50EB46FCF0EB56FFA0E6F
:10212000B66FCE0EB76FB869B96F040EBA6FCE0E28
:10213000BB6F090EBC6FCF0EBD6F0E0EBE6FD00E03
:10214000BF6F130EC06FD20EC16F170EC26FD40EC9
:10215000C36F1C0EC46FD60EC56F200EC66FD90E8E
:10216000C76F230EC86FDD0EC96F270ECA6FE00E52
:10217000CB6F2A0ECC6FE40ECD6F2C0ECE6FE90E16
:10218000CF6F2E0ED06FED0ED16F300ED26FF20EDC
:10219000D36F310ED46FF70ED56F320ED66FFC0EA3
:1021A000D76F320ED86F010ED96F576B57BF03D060
:1021B00057513F0870E357C5DAF5020EDB6F000197
:1021C000D2DE01500501DB6BDA6FE8BEDB075A0E89
:1021D000DA25E96E050EDB21EA6E6F00BCFF58F5CB
:1021E00057C5DAF5020EDB6F0001BDDE01500501B7
:1021F000DB6BDA6FE8BEDB07010EDA25016E000E3D
:10220000DB21036E01505A0FE96E050E0320EA6EC2
:102210006F00BCFF59F5400E5825FE0FDA6F400ED7
:102220005825020FDB6F0801506BDAC551F8526B6D
:10223000536F0001A8EC06F03C0E05015925FE0F76
:10224000DA6F3C0E5925020FDB6F0801506BDAC5BF
:1022500051F8526B536F0001BAEC06F0CCEC06F06B
:102260000501566B56BF03D05651080812E308010A
:10227000546B00011BEC03F00801546900011BECD6
:1022800003F00801546900011BEC03F00501562B13
:10229000E9D7572B8BD70001D3EF14F0400E05017F
:1022A000596F0A0E5A6F0E0E595D07011D6F0F0E02
:1022B0000501592507011E6F0801506B1DC751F814
:1022C000526B536F0001A8EC06F0070E05015A5D32
:1022D00007011D6F080E05015A2507011E6F080131
:1022E000506B1DC751F8526B536F0001BAEC06F0EA
:1022F000CCEC06F0010E05015B6F5C6F5D6F5E6FED
:102300005F6F606F616F626F636F646F656F666F41
:10231000676F686F696F6A6F6B6F6C6F6D6F6E6FF1
:102320006F6F706F716F726F736F746F756F766FA1
:10233000776F786F796F7A6B7B6B7C6B7D6B7E6B65
:102340007F6B806B816B826B836B846B856B866B21
:10235000876B886B896B8A6B8B6B8C6B8D6B8E6BD1
:102360008F6B906B916B926B936B946B956B966F7D
:10237000976F986B996B9A6B9B6B9C6B9D6B9E6B2D
:102380009F6BA06BA16BA26BA36BA46BA56BA66BE1
:10239000A76BA86BA96BAA6BAB6BAC6BAD6BAE6B91
:1023A000AF6BB06BB16BB26BB36BB46FB56FB66B39
:1023B000B76BB86BB96BBA6BBB6BBC6BBD6BBE6BF1
:1023C000BF6BC06BC16BC26BC36BC46BC56BC66BA1
:1023D000C76BC86BC96BCA6BCB6BCC6BCD6BCE6B51
:1023E000CF6BD06BD16BD26FD36FD46BD56BD66BF9
:1023F000D76BD86BD96BDA6BDB6BDC6BDD6BDE6BB1
:10240000DF6BE06BE16BE26BE36BE46BE56BE66B60
:10241000E76BE86BE96BEA6BEB6BEC6BED6BEE6B10
:10242000EF6BF06FF16FF26BF36BF46BF56BF66BB8
:10243000F76BF86BF96BFA6BFB6BFC6BFD6BFE6B70
:10244000FF6B0601006B016B026B036B046B056B8A
:10245000066B076B086B096B0A6B0B6B0C6B0D6BD8
:102460000E6F0F6F106B116B126B136B146B156B80
:10247000166B176B186B196B1A6B1B6B1C6B1D6B38
:102480001E6B1F6B206B216B226B236B246B256BE8
:10249000266B276B286B296B2A6B2B6B2C6F2D6F90
:1024A0002E6B2F6B306B316B326B336B346B356B48
:1024B000366B376B386B396B3A6B3B6B3C6B3D6BF8
:1024C0003E6B3F6B406B416B426B436B446B456BA8
:1024D000466B476B486B496B4A6F4B6F4C6B4D6B50
:1024E0004E6B4F6B506B516B526B536B546B556B08
:1024F000566B576B586B596B5A6B5B6B5C6B5D6BB8
:102500005E6B5F6B606B616B626B636B646B656B67
:10251000666B676B686F696F6A6B6B6B6C6B6D6B0F
:102520006E6B6F6B706B716B726B736B746B756BC7
:10253000766B776B786B796B7A6B7B6B7C6B7D6B77
:102540007E6B7F6B806B816B826B836B846B856B27
:10255000866F876F886B896B8A6B8B6B8C6B8D6BCF
:102560008E6B8F6B906B916B926B936B946B956B87
:10257000966B976B986B996B9A6B9B6B9C6B9D6B37
:102580009E6B9F6BA06BA16BA26BA36BA46FA56FDF
:10259000A66BA76BA86BA96BAA6BAB6BAC6BAD6B97
:1025A000AE6BAF6BB06BB16BB26BB36BB46BB56B47
:1025B000B66BB76BB86BB96BBA6BBB6BBC6BBD6BF7
:1025C000BE6BBF6BC06BC16BC26FC36FC46BC56B9F
:1025D000C66BC76BC86BC96BCA6BCB6BCC6BCD6B57
:1025E000CE6BCF6BD06BD16BD26BD36BD46BD56B07
:1025F000D66BD76BD86BD96BDA6BDB6BDC6BDD6BB7
:10260000DE6BDF6BE06FE16FE26BE36BE46BE56B5E
:10261000E66BE76BE86BE96BEA6BEB6BEC6BED6B16
:10262000EE6BEF6BF06BF16BF26BF36BF46BF56BC6
:10263000F66BF76BF86BF96BFA6BFB6BFC6BFD6B76
:10264000FE6FFF6F0701006F016F026F036F046F72
:10265000056F066F076F086F096F0A6F0B6F0C6FBE
:102660000D6F0E6F0F6F106F116F126F136F146F6E
:10267000156F166F176F186F196F1A6F1B6F1C6F1E
:102680000501586B576B5851010845E303E1575159
:10269000C10841E35B0E5725E96E050E5821EA6E2D
:1026A000EF2C11D00801546900011BEC03F0080164
:1026B000546900011BEC03F00801546900011BEC94
:1026C00003F024D00501565312E1080154690001BA
:1026D0001BEC03F0FE0E0801546F00011BEC03F02D
:1026E0000801546B00011BEC03F010D00501080138
:1026F000546B00011BEC03F00801546900011BEC52
:1027000003F00801546B00011BEC03F00501572B8B
:10271000D8B4582BB8D7000112000501572D02D0AC
:10272000700E5A6F575302E1100E5A6F4B0E5B6FCB
:10273000060E5A5D0601206F070E05015A25060197
:10274000216F0801506B20C651F8526B536F000186
:10275000A8EC06F0060E05015B5D0601206F070E72
:1027600005015B250601216F0801506B20C651F859
:10277000526B536F0001BAEC06F0CCEC06F0010E80
:1027800005015C6F5D6F5E6F5F6F606F616F626FA1
:10279000636F646F656F666F676F686F696F6A6F8D
:1027A0006B6B6C6B6D6B6E6B6F6B706B716B726B5D
:1027B000736B746B756B766B776F786F796B7A6B05
:1027C0007B6B7C6B7D6B7E6B7F6B806B816B826BBD
:1027D000836B846B856F866F876B886B896B8A6B65
:1027E0008B6B8C6B8D6B8E6B8F6B906B916B926B1D
:1027F000936F946F956B966B976B986B996B9A6BC5
:102800009B6B9C6B9D6B9E6B9F6BA06BA16FA26F74
:10281000A36BA46BA56BA66BA76BA86BA96BAA6B2C
:10282000AB6BAC6BAD6BAE6BAF6FB06FB16BB26BD4
:10283000B36BB46BB56BB66BB76BB86BB96BBA6B8C
:10284000BB6BBC6BBD6FBE6FBF6BC06BC16BC26B34
:10285000C36BC46BC56BC66BC76BC86BC96BCA6BEC
:10286000CB6FCC6FCD6BCE6BCF6BD06BD16BD26B94
:10287000D36BD46BD56BD66BD76BD86BD96FDA6F44
:10288000DB6BDC6BDD6BDE6BDF6BE06BE16BE26BFC
:10289000E36BE46BE56BE66BE76FE86FE96BEA6BA4
:1028A000EB6BEC6BED6BEE6BEF6BF06BF16BF26B5C
:1028B000F36BF46BF56FF66FF76BF86BF96BFA6B04
:1028C000FB6BFC6BFD6BFE6BFF6B0601006B016B22
:1028D000026B036F046F056F066F076F086F096F58
:1028E0000A6F0B6F0C6F0D6F0E6F0F6F106F116F04
:1028F000126B136B146B156B166B176B186B196BD4
:102900001A6B1B6B1C6B1D6B1E6B1F6B0501596BD0
:10291000586B595344E15851C30841E35C0E5825A4
:10292000E96E050E5921EA6EEF2C11D008015469A9
:1029300000011BEC03F00801546900011BEC03F0DB
:102940000801546900011BEC03F024D00501565323
:1029500012E10801546900011BEC03F0FE0E0801AE
:10296000546F00011BEC03F00801546B00011BECD9
:1029700003F010D005010801546B00011BEC03F0BB
:102980000801546900011BEC03F00801546B0001BD
:102990001BEC03F00501582BD8B4592BBAD7000112
:1029A0001200DAEF0FF0050111A306D0010E566FE9
:1029B000000174DC04D00501566B00016FDC0501D9
:1029C00011A107D0010E566F576F0001A6DE06D089
:1029D0000501566B010E576F00019FDE050111A521
:1029E00007D0010E566F576B000197DE05D0050129
:1029F000566B576B000191DE1200400E0501596FB6
:102A0000565303E15A0E5A6F02D08C0E5A6F0E0EB7
:102A1000595D06019A6F0E0E0501592506019B6F3F
:102A20000801506B9AC651F8526B536F0001A8EC25
:102A300006F0050E05015A5D06019A6F050E0501A7
:102A40005A2506019B6F0801506B9AC651F8526BCC
:102A5000536F0001BAEC06F0CCEC06F0010E050154
:102A60005B6F5C6F5D6F5E6F5F6F606F616F626FFA
:102A7000636F646F656F666F676F686F696F6A6FAA
:102A80006B6F6C6F6D6F6E6F6F6F706F716F726F5A
:102A9000736F746F756F766B776B786F030E796FEA
:102AA0007A6F7B6F7C6F7D6F7E6F7F6B806B816BCE
:102AB000826B836B846B856B866B876B886B896B92
:102AC0008A6B8B6B8C6B8D6B8E6B8F6B906B916B42
:102AD000010E926F936B946B956F030E966F976FC9
:102AE000986F996F9A6F9B6F9C6B9D6B9E6B9F6BA2
:102AF000A06BA16BA26BA36BA46BA56BA66BA76B62
:102B0000A86BA96BAA6BAB6BAC6BAD6BAE6B010E1C
:102B1000AF6FB06BB16BB26F030EB36FB46FB56FC5
:102B2000B66FB76FB86FB96BBA6BBB6BBC6BBD6B75
:102B3000BE6BBF6BC06BC16BC26BC36BC46BC56B31
:102B4000C66BC76BC86BC96BCA6BCB6B010ECC6F06
:102B5000CD6FCE6FCF6F030ED06FD16FD26FD36FAB
:102B6000D46FD56FD66BD76BD86BD96BDA6BDB6B49
:102B7000DC6BDD6BDE6BDF6BE06BE16BE26BE36B01
:102B8000E46BE56BE66BE76BE86B010EE96FEA6FF0
:102B9000EB6FEC6F030EED6FEE6FEF6FF06FF16F99
:102BA000F26FF36BF46BF56BF66BF76BF86BF96B1D
:102BB000FA6BFB6BFC6BFD6BFE6BFF6B0601006B36
:102BC000016B026B036B046B056B010E066F076FE5
:102BD000086F096F030E0A6F0B6F0C6F0D6F0E6F8E
:102BE0000F6F106B116B126B136B146B156B166BF5
:102BF000176B186B196B1A6B1B6B1C6B1D6B1E6BA9
:102C00001F6B206B216B226B010E236F246F256FCE
:102C1000266F030E276F286F296F2A6F2B6F2C6F7B
:102C20002D6B2E6B2F6B306B316B326B336B346BC8
:102C3000356B366B376B386B396B3A6B3B6B3C6B78
:102C40003D6B3E6B3F6B010E406F416F426F436FB8
:102C5000030E446F456F466F476F486F496F4A6B6D
:102C60004B6B4C6B4D6B4E6B4F6B506B516B526B98
:102C7000536B546B556B566B576B586B596B5A6B48
:102C80005B6B5C6B010E5D6F5E6B5F6B606F030E69
:102C9000616F626F636F646F656F666F676B686BA0
:102CA000696B6A6B6B6B6C6B6D6B6E6B6F6B706B68
:102CB000716B726B736B746B756B766B776B786B18
:102CC000796B010E7A6F7B6B7C6B7D6F7E6F7F6F94
:102CD000806F816F826F836F846F856F866F876F60
:102CE000886F896F8A6F8B6F8C6F8D6F8E6F8F6F10
:102CF000906F916F926F936F946F956F966F976FC0
:102D0000986B996B0501586B576B5851010851E34B
:102D100003E157513F084DE35B0E5725E96E050E61
:102D20005821EA6EEF2C10D00801546900011BEC09
:102D300003F00801546900011BEC03F00801546919
:102D400000011BEC03F005015B0E5725E96E050E33
:102D50005821EA6EEF5210E10801546B00011BECA0
:102D600003F00801546B00011BEC03F00801546BE5
:102D700000011BEC03F005015B0E5725E96E050E03
:102D80005821EA6EEF50030810E108015469000170
:102D90001BEC03F00801546B00011BEC03F008016D
:102DA000546B00011BEC03F00501572BD8B4582BD2
:102DB000ACD70001120005011A51000811E2FF0A08
:102DC00003E119517C080CE24651640809E0640EE5
:102DD000466F010E566F00016EEC0CF077D00501C6
:102DE0001A51010818E303E119517C0814E31A5140
:102DF000000811E2FF0A03E1195172080CE2465182
:102E0000500809E0500E466F010E566F00018EEC1F
:102E10000AF05CD005011A51010818E303E11951C9
:102E2000720814E31A51000811E2FF0A03E1195174
:102E300068080CE246513C0809E03C0E466F010E62
:102E4000566F0001B0EC08F041D005011A5101089D
:102E500018E303E11951680814E31A51000811E25C
:102E6000FF0A03E119515E080CE24651280809E007
:102E7000280E466F010E566F0001D2EC06F026D0E8
:102E800005011A51010817E303E119515E0813E324
:102E90001A51000810E2FF0A03E1195154080BE22D
:102EA0004651140808E0140E466F010E566F0001DB
:102EB000A4DD0CD005011A51010809E303E1195101
:102EC000530805E3010E566F000197DD050100016F
:102ED0001200680E0501596F8C0E5A6F0C0E595D69
:102EE0000701CC6F0C0E050159250701CD6F0801B4
:102EF000506BCCC751F8526B536F0001A8EC06F031
:102F00000C0E05015A5D0701CC6F0C0E05015A2508
:102F10000701CD6F0801506BCCC751F8526B536F4E
:102F20000001BAEC06F0CCEC06F005015B6B5C6BC3
:102F30005D6B5E6B5F6B606B616B626B636B646B35
:102F4000656B666B010E676F686B696B6A6B6B6BA9
:102F50006C6B6D6B6E6B6F6B706B716B726B736B9D
:102F6000746B756B766B776B786B796B7A6B7B6B4D
:102F70007C6B7D6B7E6B7F6B806F816B826B836BF9
:102F8000846B856B866B876B886B896B8A6B8B6BAD
:102F90008C6B8D6B8E6B8F6B906B916B926B936B5D
:102FA000946B956B966B976B986F996F9A6F9B6B01
:102FB0009C6B9D6B9E6B9F6BA06BA16BA26BA36BBD
:102FC000A46BA56BA66BA76BA86BA96BAA6BAB6B6D
:102FD000AC6BAD6BAE6BAF6BB06BB16FB26FB36F11
:102FE000B46BB56BB66BB76BB86BB96BBA6BBB6BCD
:102FF000BC6BBD6BBE6BBF6BC06BC16BC26BC36B7D
:10300000C46BC56BC66BC76BC86BC96FCA6FCB6F20
:10301000CC6FCD6FCE6BCF6BD06BD16BD26BD36BD4
:10302000D46BD56BD66BD76BD86BD96BDA6BDB6B8C
:10303000DC6BDD6BDE6BDF6BE06BE16BE26FE36F34
:10304000E46FE56FE66FE76BE86BE96BEA6BEB6BE0
:10305000EC6BED6BEE6BEF6BF06BF16BF26BF36B9C
:10306000F46BF56BF66BF76BF86BF96BFA6FFB6F44
:10307000FC6FFD6FFE6FFF6F0601006F016B026B4F
:10308000036B046B056B066B076B086B096B0A6BB4
:103090000B6B0C6B0D6B0E6B0F6B106B116B126B64
:1030A000136F146F156F166F176F186F196F1A6BF8
:1030B0001B6B1C6B1D6B1E6B1F6B206B216B226BC4
:1030C000236B246B256B266B276B286B296B2A6B74
:1030D0002B6F2C6F2D6F2E6B2F6B306B316F326F10
:1030E000336F346B356B366B376B386B396B3A6BD0
:1030F0003B6B3C6B3D6B3E6B3F6B406B416B426B84
:10310000436B446F456F466F476B486B496B4A6F23
:103110004B6F4C6F4D6B4E6B4F6B506B516B526BDB
:10312000536B546B556B566B576B586B596B5A6B93
:103130005B6B5C6F5D6F5E6F5F6F606B616B626B33
:10314000636F646F656F666F676B686B696B6A6BE3
:103150006B6B6C6B6D6B6E6B6F6B706B716B726BA3
:10316000736B746B756F766F776F786F796B7A6B43
:103170007B6B7C6F7D6F7E6F7F6F806B816B826BF3
:10318000836B846B856B866B876B886B896B8A6BB3
:103190008B6B8C6B8D6F8E6F8F6F906F916F926B4F
:1031A000936B946B956F966F976F986F996F9A6BFF
:1031B0009B6B9C6B9D6B9E6B9F6BA06BA16BA26BC3
:1031C000A36BA46BA56BA66FA76FA86FA96FAA6F5F
:1031D000AB6BAC6BAD6BAE6FAF6FB06FB16FB26F0F
:1031E000B36BB46BB56BB66BB76BB86BB96BBA6BD3
:1031F000BB6BBC6BBD6BBE6FBF6FC06FC16FC26F6F
:10320000C36FC46BC56BC66BC76FC86FC96FCA6F1E
:10321000CB6FCC6FCD6BCE6BCF6BD06BD16BD26BDA
:10322000D36BD46BD56BD66BD76FD86FD96FDA6F82
:10323000DB6FDC6FDD6BDE6BDF6BE06FE16FE26F2E
:10324000E36FE46FE56FE66BE76BE86BE96BEA6BE6
:10325000EB6BEC6BED6BEE6BEF6FF06FF16FF26F92
:10326000F36FF46FF56FF66BF76BF86BF96FFA6F3E
:10327000FB6FFC6FFD6FFE6FFF6F0701006B016B53
:10328000026B036B046B056B066B076B086F096FB2
:103290000A6F0B6F0C6F0D6F0E6F0F6B106B116B56
:1032A000126F136F146F156F166F176F186F196BFE
:1032B0001A6B1B6B1C6B1D6B1E6B1F6B206F216FC2
:1032C000226F236F246F256F266F276F286B296B62
:1032D0002A6B2B6F2C6F2D6F2E6F2F6F306F316F0E
:1032E000326F336B346B356B366B376B386B396FD2
:1032F0003A6F3B6F3C6F3D6F3E6F3F6F406F416F6A
:10330000426F436F446F456F466F476F486F496F19
:103310004A6F4B6F4C6B4D6B4E6B4F6B506B516FDD
:10332000526F536F546F556F566F576F586F596F79
:103330005A6B5B6B5C6B5D6F5E6F5F6F606F616F35
:10334000626F636F646F656F666B676B686B696BE9
:103350006A6F6B6F6C6F6D6F6E6F6F6F706F716F89
:10336000726F736B746B756B766F776F786F796F45
:103370007A6F7B6F7C6F7D6F7E6F7F6B806B816BF5
:10338000826F836F846F856F866F876F886F896F99
:103390008A6F8B6F8C6B8D6B8E6B8F6F906F916F55
:1033A000926F936F946F956F966F976F986F996BFD
:1033B0009A6B9B6F9C6F9D6F9E6F9F6FA06FA16FAD
:1033C000A26FA36FA46FA56FA66FA76FA86FA96F59
:1033D000AA6FAB6FAC6FAD6FAE6FAF6FB06FB16F09
:1033E000B26BB36FB46FB56FB66FB76FB86FB96FBD
:1033F000BA6FBB6FBC6FBD6FBE6FBF6FC06FC16F69
:10340000C26FC36FC46FC56FC66FC76FC86FC96F18
:10341000CA6FCB6F0501586B576B585102084CE3CC
:1034200003E15751710848E3565332E05B0E5725CC
:10343000E96E050E5821EA6EEF2C11D0080154698F
:1034400000011BEC03F0FE0E0801546F00011BECA1
:1034500003F00801546B00011BEC03F005015B0E47
:103460005725E96E050E5821EA6EEF5210E108016A
:10347000546B00011BEC03F00801546B00011BECC2
:1034800003F00801546B00011BEC03F0050110D0A0
:103490000801546B00011BEC03F00801546B0001A0
:1034A0001BEC03F00801546B00011BEC03F0050159
:1034B000572BD8B4582BB1D700011200016A026A09
:1034C000006A036A05015D5102E15C5118E0100ECB
:1034D0005E6FD8905A375B37003603365D51035C18
:1034E00002E15C51005C07E35C51005ED8A003067A
:1034F0005D51035ED880013602365E2FEAD70001A7
:1035000012000501606B616B626B636B646B656BD2
:10351000666B676B686B696B6A6B6B6B6C6B6D6B07
:103520006E6B6F6B706B716B726B736B010E746F84
:10353000756F766F776F786F796B7A6B7B6B7C6B5F
:103540007D6B7E6B7F6B806B816F826F836F846F0F
:10355000856F866F876F886F896B8A6B8B6B8C6BBF
:103560008D6B8E6B8F6F906F916F926F936F946F67
:10357000956F966F976F986F996B9A6B9B6B9C6B1F
:103580009D6F9E6F9F6FA06BA16BA26BA36BA46BD3
:10359000A56BA66FA76FA86FA96BAA6BAB6BAC6F7F
:1035A000AD6FAE6FAF6BB06BB16BB26BB36BB46B37
:1035B000B56BB66FB76FB86FB96BBA6BBB6FBC6FDB
:1035C000BD6FBE6BBF6BC06BC16BC26BC36BC46B9B
:1035D000C56FC66FC76FC86BC96BCA6FCB6FCC6F37
:1035E000CD6BCE6BCF6BD06BD16BD26BD36BD46FFB
:1035F000D56FD66FD76BD86BD96FDA6FDB6FDC6B9B
:10360000DD6BDE6BDF6BE06BE16BE26BE36FE46F56
:10361000E56FE66BE76BE86FE96FEA6FEB6BEC6BFE
:10362000ED6BEE6BEF6BF06BF16BF26FF36FF46FB2
:10363000F56BF66BF76FF86FF96FFA6BFB6BFC6B62
:10364000FD6BFE6BFF6B0601006B016F026F036F7A
:10365000046B056B066F076F086F096B0A6B0B6BCA
:103660000C6B0D6B0E6B0F6B106F116F126F136B7A
:10367000146B156F166F176F186B196B1A6B1B6B2A
:103680001C6B1D6B1E6B1F6F206F216F226B236BDA
:10369000246F256F266F276B286B296B2A6B2B6B8A
:1036A0002C6B2D6B2E6F2F6F306F316B326B336F36
:1036B000346F356F366B376B386B396B3A6B3B6BEE
:1036C0003C6B3D6F3E6F3F6F406B416B426F436F92
:1036D000446F456B466B476B486B496B4A6B4B6B52
:1036E0004C6F4D6F4E6F4F6B506B516F526F536FEE
:1036F000546B556B566B576B586B596B5A6B5B6FB2
:103700005C6F5D6F5E6B5F6B606F616F626F636B51
:10371000646B656B666B676B686B696B6A6F6B6F0D
:103720006C6F6D6B6E6B6F6F706F716F726B736BB5
:10373000746B756B766B776B786B796F7A6F7B6F69
:103740007C6B7D6B7E6F7F6F806F816B826B836B19
:10375000846B856B866B876B886F896F8A6F8B6BC9
:103760008C6B8D6F8E6F8F6F906B916B926B936B79
:10377000946B956B966F976F986F996B9A6B9B6B29
:103780009C6B9D6F9E6F9F6FA06FA16FA26FA36FC9
:10379000A46FA56FA66FA76BA86BA96BAA6BAB6B89
:1037A000AC6BAD6FAE6FAF6FB06FB16FB26FB36F29
:1037B000B46FB56BB66BB76BB86BB96BBA6BBB6BF1
:1037C000BC6BBD6BBE6FBF6FC06FC16FC26FC36B91
:1037D000C46BC56BC66BC76BC86BC96BCA6BCB6B55
:1037E000CC6BCD6BCE6BCF6BD06BD16BD26BD36B05
:1037F000D46BD56BD66B05015F6B5E6B5F510108B7
:1038000031E303E15E5176082DE3600E5E25E96E3B
:10381000050E5F21EA6EEF2C11D0080154690001FA
:103820001BEC03F00801546900011BEC03F00801D4
:10383000546900011BEC03F010D005010801546B22
:1038400000011BEC03F00801546B00011BEC03F0BA
:103850000801546B00011BEC03F005015E2BD8B48A
:103860005F2BCCD70001D5EF2BF00501606B616BAE
:10387000626B636B646B656B666B676B686B696BC4
:103880006A6B6B6B6C6B6D6B6E6B6F6B706B716B74
:10389000726B736B746B756B766B010E776F786FF1
:1038A000796B7A6B7B6B7C6B7D6B7E6B7F6B806BDC
:1038B000816B826B836B846B856F866F876F886B80
:1038C000896B8A6B8B6B8C6B8D6B8E6B8F6B906B3C
:1038D000916B926B936F946F956F966F976B986BDC
:1038E000996B9A6B9B6B9C6B9D6B9E6B9F6BA06B9C
:1038F000A16FA26FA36FA46FA56FA66BA76BA86B38
:10390000A96BAA6BAB6BAC6BAD6BAE6BAF6FB06FF3
:10391000B16FB26FB36FB46FB56BB66BB76BB86B9B
:10392000B96BBA6BBB6BBC6BBD6FBE6FBF6FC06F4B
:10393000C16FC26FC36FC46BC56BC66BC76BC86BFF
:10394000C96BCA6BCB6FCC6FCD6FCE6FCF6FD06FA3
:10395000D16FD26FD36BD46BD56BD66BD76BD86B63
:10396000D96BDA6FDB6FDC6FDD6FDE6BDF6FE06F03
:10397000E16FE26BE36BE46BE56BE66BE76BE86BC7
:10398000E96FEA6FEB6FEC6BED6BEE6FEF6FF06F63
:10399000F16BF26BF36BF46BF56BF66BF76BF86B2B
:1039A000F96BFA6BFB6BFC6BFD6FFE6FFF6F060133
:1039B000006B016B026B036B046B056B066B076B93
:1039C000086B096B0A6B0B6B0C6F0D6F0E6F0F6B37
:1039D000106B116B126B136B146B156B166B176BF3
:1039E000186B196B1A6B1B6F1C6F1D6F1E6B1F6B97
:1039F000206B216B226B236B246B256B266B276B53
:103A0000286B296B2A6F2B6F2C6F2D6B2E6B2F6BF6
:103A1000306B316B326B336B346B356B366B376BB2
:103A2000386B396F3A6F3B6F3C6B3D6B3E6B3F6B56
:103A3000406B416B426B436B446B456B466B476B12
:103A4000486F496F4A6F4B6B4C6B4D6B4E6B4F6BB6
:103A5000506B516B526B536B546B556B566B576F6E
:103A6000586F596F5A6B5B6B5C6B5D6B5E6B5F6B1A
:103A7000606B616B626B636B646B656B666F676FCA
:103A8000686F696B6A6B6B6B6C6B6D6B6E6B6F6B7E
:103A9000706B716B726B736B746B756F766F776F26
:103AA000786B796B7A6B7B6B7C6B7D6B7E6B7F6BE2
:103AB000806B816B826B836B846F856F866F876B86
:103AC000886B896B8A6B8B6B8C6B8D6B8E6B8F6B42
:103AD000906B916B926B936F946F956F966B976BE6
:103AE000986B996B9A6B9B6B9C6B9D6B9E6B9F6BA2
:103AF000A06BA16BA26FA36FA46FA56BA66BA76B46
:103B0000A86BA96BAA6BAB6BAC6BAD6BAE6BAF6B01
:103B1000B06BB16FB26FB36FB46BB56BB66BB76BA5
:103B2000B86BB96BBA6BBB6BBC6BBD6BBE6BBF6B61
:103B3000C06FC16FC26FC36BC46BC56BC66BC76B05
:103B4000C86BC96BCA6BCB6BCC6BCD6BCE6BCF6BC1
:103B5000D06BD16BD26BD36BD46BD56BD66B0501AD
:103B60005F6B5E6B5F51010831E303E15E517608E4
:103B70002DE3600E5E25E96E050E5F21EA6EEF2CE7
:103B800011D00801546900011BEC03F008015469CD
:103B900000011BEC03F00801546900011BEC03F069
:103BA00010D005010801546B00011BEC03F0080163
:103BB000546B00011BEC03F00801546B00011BEC7B
:103BC00003F005015E2BD8B45F2BCCD70001D9EFF1
:103BD0002BF00501606B616B626B636B646B656BF3
:103BE000666B676B686B696B6A6B6B6B6C6B6D6B31
:103BF0006E6B6F6B706B716B726B736B010E746FAE
:103C0000756F766F776F786F796F7A6B7B6B7C6B84
:103C10007D6B7E6B7F6B806B816F826F836F846F38
:103C2000856F866F876F886F896F8A6B8B6B8C6BE4
:103C30008D6B8E6B8F6F906F916F926F936F946F90
:103C4000956F966F976F986F996F9A6B9B6B9C6B44
:103C50009D6F9E6F9F6FA06FA16FA26BA36BA46BF4
:103C6000A56BA66FA76FA86FA96FAA6BAB6BAC6FA4
:103C7000AD6FAE6FAF6FB06BB16BB26BB36BB46B5C
:103C8000B56BB66FB76FB86FB96BBA6BBB6FBC6F04
:103C9000BD6FBE6FBF6BC06BC16BC26BC36BC46FBC
:103CA000C56FC66FC76FC86BC96BCA6BCB6BCC6B6C
:103CB000CD6BCE6BCF6BD06BD16BD26BD36FD46F20
:103CC000D56FD66FD76BD86BD96BDA6BDB6BDC6BD0
:103CD000DD6BDE6BDF6BE06BE16BE26FE36FE46F7C
:103CE000E56FE66BE76BE86BE96BEA6BEB6BEC6B34
:103CF000ED6BEE6BEF6BF06BF16FF26FF36FF46FD8
:103D0000F56BF66BF76BF86BF96BFA6BFB6BFC6B97
:103D1000FD6BFE6BFF6F0601006F016F026F036B9F
:103D2000046B056B066B076B086B096B0A6B0B6BFF
:103D30000C6B0D6B0E6F0F6F106F116F126B136B9F
:103D4000146B156B166B176B186B196B1A6B1B6B5F
:103D50001C6F1D6F1E6F1F6F206B216B226B236BFF
:103D6000246B256B266B276B286B296B2A6F2B6FB7
:103D70002C6F2D6F2E6B2F6B306B316B326B336B67
:103D8000346B356B366B376B386F396F3A6F3B6F0F
:103D90003C6B3D6B3E6B3F6B406B416B426B436BCF
:103DA000446B456B466F476F486F496F4A6B4B6B6F
:103DB0004C6B4D6B4E6B4F6B506B516B526B536B2F
:103DC000546F556F566F576F586B596B5A6B5B6BCF
:103DD0005C6B5D6B5E6B5F6B606B616B626F636F87
:103DE000646F656F666B676B686B696B6A6B6B6B37
:103DF0006C6B6D6B6E6B6F6B706F716F726F736FDF
:103E0000746B756B766B776B786B796B7A6B7B6B9E
:103E10007C6B7D6B7E6B7F6F806F816F826F836B3E
:103E2000846B856B866B876B886B896B8A6B8B6BFE
:103E30008C6B8D6F8E6F8F6F906F916F926B936B9A
:103E4000946B956B966B976B986B996B9A6B9B6B5E
:103E50009C6F9D6F9E6F9F6FA06FA16FA26FA36FEE
:103E6000A46FA56FA66FA76FA86FA96BAA6FAB6FA2
:103E7000AC6FAD6FAE6FAF6FB06FB16FB26FB36F4E
:103E8000B46FB56FB66FB76FB86BB96FBA6FBB6F02
:103E9000BC6FBD6FBE6FBF6FC06FC16FC26FC36FAE
:103EA000C46FC56FC66FC76BC86BC96BCA6BCB6B72
:103EB000CC6BCD6BCE6BCF6BD06BD16BD26BD36B2E
:103EC000D46BD56BD66B05015F6B5E6B5F510108E0
:103ED00031E303E15E5176082DE3600E5E25E96E65
:103EE000050E5F21EA6EEF2C11D008015469000124
:103EF0001BEC03F00801546900011BEC03F00801FE
:103F0000546900011BEC03F010D005010801546B4B
:103F100000011BEC03F00801546B00011BEC03F0E3
:103F20000801546B00011BEC03F005015E2BD8B4B3
:103F30005F2BCCD70001DDEF2BF00501606B616BCF
:103F4000626B636B646B656B666B676B686B696BED
:103F50006A6B6B6B6C6B6D6B6E6B6F6B706B716B9D
:103F6000726B736B010E746F756F766F776F786F0E
:103F7000796B7A6B7B6B7C6B7D6B7E6B7F6B806B05
:103F8000816F826F836F846F856F866F876F886F95
:103F9000896B8A6B8B6B8C6B8D6B8E6B8F6F906F5D
:103FA000916F926F936F946F956F966F976F986FF5
:103FB000996F9A6B9B6B9C6B9D6F9E6F9F6FA06FB1
:103FC000A16FA26FA36FA46FA56FA66FA76FA86F55
:103FD000A96BAA6BAB6BAC6FAD6FAE6FAF6FB06F11
:103FE000B16BB26BB36BB46FB56FB66FB76FB86FC1
:103FF000B96BBA6FBB6FBC6FBD6FBE6FBF6BC06B71
:10400000C16BC26BC36BC46FC56FC66FC76FC86B24
:10401000C96FCA6FCB6FCC6FCD6BCE6BCF6BD06BD4
:10402000D16BD26BD36FD46FD56FD66FD76BD86B84
:10403000D96BDA6BDB6BDC6BDD6BDE6BDF6BE06B44
:10404000E16BE26FE36FE46FE56FE66BE76BE86BE4
:10405000E96BEA6BEB6BEC6BED6BEE6BEF6BF06BA4
:10406000F16FF26FF36FF46FF56BF66BF76BF86B44
:10407000F96BFA6BFB6BFC6BFD6BFE6BFF6F060164
:10408000006F016F026F036F046B056B066B076BAC
:10409000086B096B0A6F0B6F0C6F0D6F0E6F0F6F54
:1040A000106F116F126B136B146B156B166B176B14
:1040B000186B196F1A6F1B6F1C6F1D6F1E6F1F6FB0
:1040C000206B216B226B236B246B256B266B276B7C
:1040D000286F296F2A6F2B6F2C6F2D6F2E6F2F6F0C
:1040E000306B316B326B336B346B356B366B376BDC
:1040F000386B396B3A6B3B6F3C6F3D6F3E6F3F6F78
:10410000406B416B426B436B446B456B466B476B3B
:10411000486B496B4A6B4B6F4C6F4D6F4E6F4F6BDB
:10412000506B516B526B536B546B556B566B576B9B
:10413000586B596B5A6F5B6F5C6F5D6F5E6B5F6B3B
:10414000606B616B626B636B646B656B666B676BFB
:10415000686B696F6A6F6B6F6C6F6D6B6E6F6F6F93
:10416000706F716F726B736B746B756B766B776B53
:10417000786F796F7A6F7B6F7C6B7D6F7E6F7F6FEF
:10418000806F816F826B836B846B856B866B876FAF
:10419000886F896F8A6F8B6B8C6B8D6F8E6F8F6F53
:1041A000906F916F926B936B946B956F966F976F07
:1041B000986F996F9A6B9B6B9C6F9D6F9E6F9F6FB3
:1041C000A06FA16FA26FA36FA46FA56FA66FA76F5B
:1041D000A86BA96BAA6BAB6BAC6FAD6FAE6FAF6F1B
:1041E000B06FB16FB26FB36FB46FB56FB66FB76BBF
:1041F000B86BB96BBA6BBB6BBC6BBD6FBE6FBF6F7F
:10420000C06FC16FC26FC36FC46BC56BC66BC76B2A
:10421000C86BC96BCA6BCB6BCC6BCD6FCE6FCF6FDE
:10422000D06FD16FD26BD36BD46BD56BD66B0501CE
:104230005F6B5E6B5F51010831E303E15E5176080D
:104240002DE3600E5E25E96E050E5F21EA6EEF2C10
:1042500011D00801546900011BEC03F008015469F6
:1042600000011BEC03F00801546900011BEC03F092
:1042700010D005010801546B00011BEC03F008018C
:10428000546B00011BEC03F00801546B00011BECA4
:1042900003F005015E2BD8B45F2BCCD70001E1EF12
:1042A0002BF00501606B616B626B636B646B656B1C
:1042B000666B676B686B696B6A6B6B6B6C6B6D6B5A
:1042C0006E6B6F6B706B716B726B736B746B756B0A
:1042D000766B776B010E786F796F7A6F7B6F7C6B83
:1042E0007D6B7E6B7F6B806B816B826B836B846B72
:1042F000856B866B876F886F896F8A6F8B6B8C6B12
:104300008D6B8E6B8F6B906B916B926B936B946BD1
:10431000956F966F976F986F996F9A6B9B6B9C6B6D
:104320009D6B9E6B9F6BA06BA16BA26BA36FA46F29
:10433000A56FA66FA76FA86FA96BAA6BAB6BAC6BD1
:10434000AD6BAE6BAF6BB06BB16FB26FB36FB46F81
:10435000B56FB66FB76FB86BB96BBA6BBB6BBC6B35
:10436000BD6BBE6BBF6BC06FC16FC26FC36FC46FDD
:10437000C56FC66FC76BC86BC96BCA6BCB6BCC6B99
:10438000CD6BCE6FCF6FD06FD16FD26BD36FD46F39
:10439000D56FD66BD76BD86BD96BDA6BDB6BDC6BFD
:1043A000DD6FDE6FDF6FE06FE16BE26FE36FE46F95
:1043B000E56BE66BE76BE86BE96BEA6BEB6FEC6F59
:1043C000ED6FEE6FEF6BF06BF16FF26FF36FF46BFD
:1043D000F56BF66BF76BF86BF96BFA6FFB6FFC6FB5
:1043E000FD6FFE6BFF6B0601006F016F026F036BC9
:1043F000046B056B066B076B086F096F0A6F0B6F19
:104400000C6B0D6B0E6B0F6F106F116F126B136BCC
:10441000146B156B166F176F186F196F1A6B1B6B78
:104420001C6B1D6B1E6F1F6F206F216B226B236B2C
:10443000246B256F266F276F286F296B2A6B2B6BD8
:104440002C6B2D6F2E6F2F6F306B316B326B336F88
:10445000346F356F366F376B386B396B3A6B3B6B3C
:104460003C6F3D6F3E6F3F6B406B416F426F436FE0
:10447000446F456B466B476B486B496B4A6B4B6FA0
:104480004C6F4D6F4E6B4F6B506F516F526F536F40
:10449000546F556F566F576F586F596F5A6F5B6FE8
:1044A0005C6F5D6F5E6F5F6F606F616F626F636F98
:1044B000646F656F666F676F686F696F6A6F6B6F48
:1044C0006C6F6D6F6E6F6F6F706F716F726F736FF8
:1044D000746F756F766F776F786F796F7A6F7B6FA8
:1044E0007C6F7D6B7E6B7F6B806B816B826B836B74
:1044F000846B856B866B876F886F896F8A6B8B6B1C
:104500008C6B8D6B8E6B8F6B906B916B926B936BD7
:10451000946B956B966F976F986F996B9A6B9B6B7B
:104520009C6B9D6B9E6B9F6BA06BA16BA26BA36B37
:10453000A46BA56FA66FA76FA86BA96BAA6BAB6BDB
:10454000AC6BAD6BAE6BAF6BB06BB16BB26BB36B97
:10455000B46FB56FB66FB76BB86BB96BBA6BBB6B3B
:10456000BC6BBD6BBE6BBF6BC06BC16BC26BC36FF3
:10457000C46FC56FC66BC76BC86BC96BCA6BCB6B9F
:10458000CC6BCD6BCE6BCF6BD06BD16BD26BD36B57
:10459000D46BD56BD66B05015F6B5E6B5F51010809
:1045A00031E303E15E5176082DE3600E5E25E96E8E
:1045B000050E5F21EA6EEF2C11D00801546900014D
:1045C0001BEC03F00801546900011BEC03F0080127
:1045D000546900011BEC03F010D005010801546B75
:1045E00000011BEC03F00801546B00011BEC03F00D
:1045F0000801546B00011BEC03F005015E2BD8B4DD
:104600005F2BCCD70001E5EF2BF00501606B616BF0
:10461000626B636B646B656B666B676B686B696B16
:104620006A6B6B6B6C6B6D6B6E6B6F6B706B010E93
:10463000716F726F736F746F756F766F776F786F5E
:10464000796F7A6F7B6F7C6F7D6B7E6B7F6B806F1A
:10465000816F826F836F846F856F866F876F886FBE
:10466000896F8A6F8B6F8C6B8D6B8E6B8F6F906F7A
:10467000916F926F936F946F956F966F976F986F1E
:10468000996F9A6F9B6B9C6B9D6B9E6F9F6FA06FDA
:10469000A16FA26BA36BA46BA56BA66BA76BA86B9A
:1046A000A96BAA6BAB6BAC6BAD6FAE6FAF6FB06B42
:1046B000B16BB26BB36BB46BB56BB66BB76BB86BFE
:1046C000B96BBA6BBB6BBC6FBD6FBE6FBF6BC06BA2
:1046D000C16BC26BC36BC46BC56BC66BC76BC86B5E
:1046E000C96BCA6BCB6FCC6FCD6FCE6BCF6BD06B02
:1046F000D16BD26BD36BD46BD56BD66BD76BD86BBE
:10470000D96BDA6FDB6FDC6FDD6FDE6FDF6FE06F51
:10471000E16FE26FE36FE46BE56BE66BE76BE86B11
:10472000E96FEA6FEB6FEC6FED6FEE6FEF6FF06FAD
:10473000F16FF26FF36FF46BF56BF66BF76BF86F6D
:10474000F96FFA6FFB6FFC6FFD6FFE6FFF6F060175
:10475000006F016F026F036F046B056B066B076FD1
:10476000086F096F0A6B0B6B0C6B0D6B0E6B0F6F89
:10477000106F116F126F136F146B156B166B176B35
:10478000186B196B1A6B1B6B1C6B1D6B1E6B1F6FF1
:10479000206F216F226F236B246B256B266B276B99
:1047A000286B296B2A6B2B6B2C6B2D6B2E6F2F6F4D
:1047B000306F316F326B336B346B356B366B376BFD
:1047C000386B396B3A6B3B6B3C6B3D6F3E6F3F6FA9
:1047D000406F416B426B436B446B456B466B476B61
:1047E000486B496B4A6B4B6B4C6F4D6F4E6F4F6F05
:1047F000506B516B526B536B546B556B566B576BC5
:10480000586B596B5A6B5B6F5C6F5D6F5E6F5F6B64
:10481000606F616F626F636B646B656B666B676B18
:10482000686B696B6A6F6B6F6C6F6D6F6E6B6F6FC0
:10483000706F716F726B736B746B756B766B776B7C
:10484000786F796F7A6F7B6F7C6B7D6B7E6F7F6F1C
:10485000806F816F826B836B846B856B866F876FD4
:10486000886F896F8A6F8B6B8C6B8D6F8E6F8F6F7C
:10487000906F916F926F936F946F956F966F976F24
:10488000986F996B9A6B9B6B9C6B9D6F9E6F9F6FE4
:10489000A06FA16FA26FA36FA46FA56FA66FA76B88
:1048A000A86BA96BAA6BAB6BAC6BAD6BAE6FAF6F4C
:1048B000B06FB16FB26FB36FB46BB56BB66BB76BF4
:1048C000B86BB96BBA6BBB6BBC6BBD6BBE6BBF6BB4
:1048D000C06BC16BC26BC36BC46BC56BC66BC76B64
:1048E000C86BC96BCA6BCB6BCC6BCD6BCE6BCF6B14
:1048F000D06BD16BD26BD36BD46BD56BD66B050100
:104900005F6B5E6B5F51010831E303E15E51760836
:104910002DE3600E5E25E96E050E5F21EA6EEF2C39
:1049200011D00801546900011BEC03F0080154691F
:1049300000011BEC03F00801546900011BEC03F0BB
:1049400010D005010801546B00011BEC03F00801B5
:10495000546B00011BEC03F00801546B00011BECCD
:1049600003F005015E2BD8B45F2BCCD70001E9EF33
:104970002BF00501606B616B626B636B646B656B45
:10498000666B676B686B696B6A6B6B6B6C6B6D6B83
:104990006E6B6F6B706B716B726B736B746B010E04
:1049A000756F766F776F786F796F7A6B7B6B7C6BD7
:1049B0007D6B7E6B7F6B806B816B826B836F846F93
:1049C000856F866F876F886F896F8A6B8B6B8C6B37
:1049D0008D6B8E6B8F6B906B916F926F936F946FEB
:1049E000956F966F976F986F996F9A6B9B6B9C6B97
:1049F0009D6B9E6B9F6FA06FA16FA26FA36FA46F43
:104A0000A56FA66FA76FA86FA96FAA6BAB6BAC6BF6
:104A1000AD6BAE6FAF6FB06FB16BB26BB36BB46BAE
:104A2000B56BB66BB76FB86FB96FBA6BBB6BBC6F5A
:104A3000BD6FBE6FBF6BC06BC16BC26BC36BC46B12
:104A4000C56BC66FC76FC86FC96BCA6BCB6FCC6FB6
:104A5000CD6FCE6BCF6BD06BD16BD26BD36BD46B76
:104A6000D56BD66BD76BD86BD96BDA6FDB6FDC6F1E
:104A7000DD6BDE6BDF6BE06BE16BE26BE36BE46BDA
:104A8000E56BE66BE76BE86BE96FEA6FEB6FEC6B7E
:104A9000ED6BEE6BEF6BF06BF16BF26BF36BF46B3A
:104AA000F56BF66BF76FF86FF96FFA6FFB6FFC6FD2
:104AB000FD6FFE6FFF6F0601006F016B026B036BF2
:104AC000046B056B066F076F086F096F0A6F0B6F3A
:104AD0000C6F0D6F0E6F0F6F106F116F126B136BEA
:104AE000146B156F166F176F186F196F1A6F1B6F96
:104AF0001C6F1D6F1E6F1F6F206F216F226B236B4A
:104B0000246F256F266F276F286F296F2A6B2B6BF9
:104B10002C6B2D6F2E6F2F6F306F316F326B336FA9
:104B2000346F356F366F376F386B396B3A6B3B6B61
:104B30003C6B3D6F3E6F3F6F406F416B426F436F09
:104B4000446F456F466B476B486B496B4A6B4B6BC9
:104B50004C6F4D6F4E6F4F6F506B516F526F536F65
:104B6000546F556B566B576B586B596B5A6B5B6F29
:104B70005C6F5D6F5E6F5F6B606F616F626F636FC5
:104B8000646B656B666B676B686B696B6A6F6B6F89
:104B90006C6F6D6F6E6B6F6B706F716F726F736B2D
:104BA000746B756B766B776B786B796F7A6F7B6FE5
:104BB0007C6F7D6B7E6B7F6F806F816F826B836B91
:104BC000846B856B866B876B886F896F8A6F8B6B45
:104BD0008C6B8D6B8E6F8F6F906F916F926B936BF1
:104BE000946B956B966F976F986F996F9A6B9B6BA1
:104BF0009C6B9D6B9E6F9F6FA06FA16FA26FA36F49
:104C0000A46FA56FA66FA76FA86BA96BAA6BAB6B00
:104C1000AC6BAD6BAE6FAF6FB06FB16FB26FB36FA8
:104C2000B46FB56FB66BB76BB86BB96BBA6BBB6B68
:104C3000BC6BBD6BBE6BBF6FC06FC16FC26FC36F0C
:104C4000C46BC56BC66BC76BC86BC96BCA6BCB6BD0
:104C5000CC6BCD6BCE6BCF6BD06BD16BD26BD36B80
:104C6000D46BD56BD66B05015F6B5E6B5F51010832
:104C700031E303E15E5176082DE3600E5E25E96EB7
:104C8000050E5F21EA6EEF2C11D008015469000176
:104C90001BEC03F00801546900011BEC03F0080150
:104CA000546900011BEC03F010D005010801546B9E
:104CB00000011BEC03F00801546B00011BEC03F036
:104CC0000801546B00011BEC03F005015E2BD8B406
:104CD0005F2BCCD70001EDEF2BF00501606B616B12
:104CE000626B636B646B656B666B676B686B696B40
:104CF0006A6B6B6B6C6B6D6B6E6B6F6B010E706FB9
:104D0000716F726F736F746F756F766F776F786F87
:104D1000796F7A6F7B6F7C6F7D6F7E6B7F6F806F3B
:104D2000816F826F836F846F856F866F876F886FE7
:104D3000896F8A6F8B6F8C6F8D6B8E6F8F6F906F9B
:104D4000916F926F936F946F956F966F976F986F47
:104D5000996F9A6F9B6F9C6B9D6B9E6B9F6BA06B0B
:104D6000A16BA26BA36BA46BA56BA66FA76FA86FBB
:104D7000A96FAA6BAB6BAC6BAD6BAE6BAF6BB06B73
:104D8000B16BB26BB36BB46FB56FB66FB76FB86F13
:104D9000B96BBA6BBB6BBC6BBD6BBE6BBF6BC06BD7
:104DA000C16BC26FC36FC46FC56FC66FC76BC86B73
:104DB000C96BCA6BCB6BCC6BCD6BCE6BCF6BD06B37
:104DC000D16FD26FD36FD46FD56BD66BD76BD86BD7
:104DD000D96BDA6BDB6BDC6BDD6BDE6BDF6BE06F93
:104DE000E16FE26FE36FE46BE56BE66BE76BE86B3B
:104DF000E96BEA6BEB6BEC6BED6BEE6BEF6FF06FEF
:104E0000F16FF26FF36BF46BF56BF66BF76BF86B9E
:104E1000F96BFA6BFB6BFC6BFD6FFE6FFF6F0601AE
:104E2000006F016B026B036B046B056B066B076B0A
:104E3000086B096B0A6B0B6B0C6F0D6F0E6F0F6FAE
:104E4000106B116B126B136B146B156B166B176B6E
:104E5000186B196B1A6F1B6F1C6F1D6F1E6B1F6B0E
:104E6000206B216B226B236B246B256B266B276BCE
:104E7000286B296F2A6F2B6F2C6F2D6B2E6B2F6B6E
:104E8000306B316B326B336B346B356B366B376B2E
:104E9000386F396F3A6F3B6F3C6B3D6B3E6B3F6BCE
:104EA000406B416B426B436B446B456B466F476F86
:104EB000486F496F4A6B4B6B4C6B4D6B4E6B4F6B36
:104EC000506B516B526B536B546B556F566F576FE2
:104ED000586F596B5A6B5B6B5C6B5D6B5E6B5F6B9A
:104EE000606B616B626B636B646F656F666F676F3E
:104EF000686B696B6A6B6B6B6C6B6D6B6E6B6F6BFE
:104F0000706B716B726F736F746F756F766B776B9D
:104F1000786B796B7A6B7B6B7C6B7D6B7E6B7F6B5D
:104F2000806B816F826F836F846F856B866B876BFD
:104F3000886B896B8A6B8B6B8C6B8D6B8E6B8F6BBD
:104F4000906F916F926F936F946B956B966B976B5D
:104F5000986B996B9A6B9B6B9C6B9D6B9E6B9F6F19
:104F6000A06FA16FA26FA36BA46BA56BA66BA76BC1
:104F7000A86BA96BAA6BAB6BAC6BAD6BAE6FAF6F75
:104F8000B06FB16FB26BB36BB46BB56BB66BB76B25
:104F9000B86BB96BBA6BBB6BBC6BBD6FBE6FBF6FD1
:104FA000C06FC16BC26BC36BC46BC56BC66BC76B89
:104FB000C86BC96BCA6BCB6BCC6BCD6BCE6BCF6B3D
:104FC000D06BD16BD26BD36BD46BD56BD66B050129
:104FD0005F6B5E6B5F51010831E303E15E51760860
:104FE0002DE3600E5E25E96E050E5F21EA6EEF2C63
:104FF00011D00801546900011BEC03F00801546949
:1050000000011BEC03F00801546900011BEC03F0E4
:1050100010D005010801546B00011BEC03F00801DE
:10502000546B00011BEC03F00801546B00011BECF6
:1050300003F005015E2BD8B45F2BCCD70001F1EF54
:105040002BF00501606B616B626B636B646B656B6E
:10505000666B676B686B696B6A6B6B6B6C6B6D6BAC
:105060006E6B6F6B706B716B726B736B010E746F29
:10507000756F766F776F786F796B7A6B7B6B7C6B04
:105080007D6B7E6B7F6B806B816F826F836F846FB4
:10509000856F866F876F886F896F8A6B8B6B8C6B60
:1050A0008D6B8E6B8F6F906F916F926F936F946F0C
:1050B000956F966F976F986F996F9A6B9B6B9C6BC0
:1050C0009D6F9E6F9F6FA06FA16FA26FA36FA46F64
:1050D000A56FA66FA76FA86FA96FAA6BAB6FAC6F18
:1050E000AD6FAE6FAF6FB06FB16BB26BB36BB46FD0
:1050F000B56FB66FB76FB86FB96BBA6FBB6FBC6F78
:10510000BD6FBE6FBF6BC06BC16BC26BC36BC46F37
:10511000C56FC66FC76FC86BC96FCA6FCB6FCC6FD7
:10512000CD6FCE6BCF6BD06BD16BD26BD36FD46F97
:10513000D56FD66FD76BD86FD96FDA6FDB6FDC6F37
:10514000DD6BDE6BDF6BE06BE16BE26FE36FE46FF7
:10515000E56FE66BE76BE86FE96FEA6FEB6FEC6F9B
:10516000ED6BEE6BEF6BF06FF16FF26FF36FF46F4F
:10517000F56BF66BF76BF86FF96FFA6FFB6FFC6FFF
:10518000FD6FFE6FFF6F0601006F016F026F036B13
:10519000046B056B066B076B086F096F0A6F0B6F6B
:1051A0000C6F0D6F0E6F0F6F106F116B126B136B17
:1051B000146B156F166F176F186F196F1A6F1B6FBF
:1051C0001C6F1D6F1E6F1F6F206F216B226B236B77
:1051D000246F256F266F276F286F296B2A6B2B6B27
:1051E0002C6F2D6F2E6F2F6F306F316B326F336FCF
:1051F000346F356F366F376B386B396B3A6B3B6B8F
:105200003C6F3D6F3E6F3F6F406F416F426F436F2A
:10521000446F456B466B476B486B496B4A6B4B6BF6
:105220004C6F4D6F4E6F4F6F506F516F526F536F8A
:10523000546B556B566B576B586B596B5A6B5B6F56
:105240005C6F5D6F5E6F5F6F606F616F626F636BEE
:10525000646B656B666B676B686B696B6A6F6B6FB2
:105260006C6F6D6F6E6F6F6F706F716F726B736B52
:10527000746B756B766B776B786B796F7A6F7B6F0E
:105280007C6F7D6F7E6F7F6F806F816F826B836BB2
:10529000846B856B866B876F886F896F8A6F8B6F66
:1052A0008C6F8D6F8E6F8F6F906F916F926B936B12
:1052B000946B956B966F976F986F996F9A6B9B6BCA
:1052C0009C6F9D6F9E6F9F6FA06FA16FA26FA36F6A
:1052D000A46FA56FA66FA76FA86FA96BAA6BAB6B26
:1052E000AC6FAD6FAE6FAF6FB06FB16FB26FB36FCA
:1052F000B46FB56FB66FB76BB86BB96BBA6BBB6B8E
:10530000BC6FBD6FBE6FBF6FC06FC16FC26FC36F29
:10531000C46FC56BC66BC76BC86BC96BCA6BCB6BF5
:10532000CC6BCD6FCE6FCF6FD06FD16FD26BD36B95
:10533000D46BD56BD66B05015F6B5E6B5F5101085B
:1053400031E303E15E5176082DE3600E5E25E96EE0
:10535000050E5F21EA6EEF2C11D00801546900019F
:105360001BEC03F00801546900011BEC03F0080179
:10537000546900011BEC03F010D005010801546BC7
:1053800000011BEC03F00801546B00011BEC03F05F
:105390000801546B00011BEC03F005015E2BD8B42F
:1053A0005F2BCCD70001F4EF2BF00501606B616B34
:1053B000626B636B646B656B666B676B686B696B69
:1053C0006A6B6B6B6C6B6D6B6E6B6F6B706B716B19
:1053D000726B010E736F746F756F766F776F786F86
:1053E000796B7A6B7B6B7C6B7D6B7E6B7F6B806F7D
:1053F000816F826F836F846F856F866F876F886F11
:10540000896F8A6B8B6B8C6B8D6B8E6F8F6F906FD0
:10541000916F926F936F946F956F966F976F986F70
:10542000996F9A6B9B6B9C6B9D6F9E6F9F6FA06F2C
:10543000A16FA26BA36BA46BA56FA66FA76FA86FDC
:10544000A96FAA6BAB6FAC6FAD6FAE6FAF6BB06B8C
:10545000B16BB26BB36BB46BB56FB66FB76FB86F40
:10546000B96BBA6FBB6FBC6FBD6FBE6BBF6BC06BF0
:10547000C16BC26BC36BC46BC56FC66FC76FC86FA0
:10548000C96FCA6FCB6FCC6FCD6BCE6BCF6BD06B50
:10549000D16BD26BD36BD46FD56FD66FD76FD86FFC
:1054A000D96FDA6FDB6FDC6BDD6BDE6BDF6BE06BB4
:1054B000E16BE26BE36FE46FE56FE66FE76FE86F58
:1054C000E96FEA6FEB6BEC6BED6BEE6BEF6BF06B18
:1054D000F16BF26FF36FF46FF56FF66FF76FF86FB4
:1054E000F96FFA6FFB6BFC6BFD6BFE6BFF6B0601DC
:1054F000006F016F026F036F046F056F066F076F18
:10550000086F096F0A6F0B6B0C6B0D6B0E6F0F6FD3
:10551000106F116F126F136F146B156F166F176F7B
:10552000186F196F1A6F1B6F1C6F1D6F1E6F1F6F27
:10553000206F216F226F236B246B256F266F276FDF
:10554000286F296F2A6F2B6F2C6F2D6F2E6F2F6F87
:10555000306F316F326B336B346B356F366F376F43
:10556000386F396F3A6F3B6F3C6B3D6F3E6F3F6FEB
:10557000406F416B426B436B446B456B466B476BB3
:10558000486B496B4A6B4B6B4C6F4D6F4E6F4F6F57
:10559000506B516B526B536B546B556B566B576B17
:1055A000586B596B5A6B5B6F5C6F5D6F5E6F5F6FB3
:1055B000606F616F626F636B646B656B666B676B6B
:1055C000686B696F6A6F6B6F6C6F6D6F6E6F6F6F0B
:1055D000706F716F726F736B746B756B766B776BCB
:1055E000786F796F7A6F7B6F7C6B7D6B7E6F7F6F6F
:1055F000806F816F826F836B846B856F866F876F1F
:10560000886F896F8A6F8B6B8C6B8D6F8E6F8F6FCE
:10561000906F916F926F936F946F956F966F976F76
:10562000986F996B9A6B9B6B9C6B9D6F9E6F9F6F36
:10563000A06FA16FA26FA36FA46FA56FA66FA76BDA
:10564000A86BA96BAA6BAB6BAC6BAD6FAE6FAF6F9A
:10565000B06FB16FB26FB36FB46FB56BB66BB76B42
:10566000B86BB96BBA6BBB6BBC6BBD6BBE6FBF6FFE
:10567000C06FC16FC26BC36BC46BC56BC66BC76BAE
:10568000C86BC96BCA6BCB6BCC6BCD6BCE6BCF6B66
:10569000D06BD16BD26BD36BD46BD56BD66B050152
:1056A0005F6B5E6B5F51010831E303E15E51760889
:1056B0002DE3600E5E25E96E050E5F21EA6EEF2C8C
:1056C00011D00801546900011BEC03F00801546972
:1056D00000011BEC03F00801546900011BEC03F00E
:1056E00010D005010801546B00011BEC03F0080108
:1056F000546B00011BEC03F00801546B00011BEC20
:1057000003F005015E2BD8B45F2BCCD70001F7EF77
:105710002BF005015A51FC0F1DE2040F0001FCEFB4
:105720002BF0220E05015C6F3C0E5D6F13D0340E22
:1057300005015C6F3C0E5D6F0DD04C0E05015C6F7A
:105740003C0E5D6F07D05E0E05015C6F3C0E5D6F19
:1057500001D00501070E5C5D5E6F070E5C255F6F73
:105760000801506B5EC551F8526B536F0001A8ECF5
:1057700006F00C0E05015D5D5E6F0C0E5D255F6F22
:105780000801506B5EC551F8526B536F0001BAECC3
:1057900006F0CCEC06F005015B51F60F2BE20A0F88
:1057A000000110EF2CF081EF1AF0050123D035EF46
:1057B0001CF005011FD0E9EF1DF005011BD09DEF86
:1057C0001FF0050117D051EF21F0050113D005EFAF
:1057D00023F005010FD0B9EF24F005010BD06DEFD8
:1057E00026F0050107D02DD4050104D0DED5050132
:1057F00001D0050100011200E824F76AF736190FFD
:10580000F66E580EF722000EF86EFB6E0A00F55089
:10581000FA6E0800F550F96E22572E573A57465740
:10582000E824F76AF736410FF66E580EF722000E9D
:10583000F86EFB6E0A00F550FA6E0800F550F96E2E
:10584000A657AE57B657BE57C657CE57D657DE5790
:10585000E657EC5714C55BF513C55AF505015D6BAA
:105860000A0E5C6F00015EEC1AF001C056F514C51B
:105870005BF513C55AF505015D6B0A0E5C6F0001FF
:105880005EEC1AF000C057F5050116C55BF515C5AD
:105890005AF55D6B0A0E5C6F00015EEC1AF001C0F8
:1058A00058F516C55BF515C55AF505015D6B0A0E71
:1058B0005C6F00015EEC1AF000C059F5050143531E
:1058C00006E05A6B56C55BF5000123DF0501442D48
:1058D00001D007D0010E5A6F57C55BF5000119DFE3
:1058E00005014551020807E0020E5A6F58C55BF5E5
:1058F00000010FDF0501030E5A6F59C55BF500016A
:1059000008DF56C543F557C544F558C545F512009F
:10591000C3820501566BCBB2562B565303E0475357
:1059200001E10E8956C547F5000181EF3BF0180EE5
:105930000501586F8C0E596F0E0E585D08014E6FA1
:105940000D0E0501582508014F6F506B4EC851F8D8
:10595000526B536F0001A8EC06F00D0E0501595D66
:1059600008014E6F0D0E0501592508014F6F506B50
:105970004EC851F8526B536F0001BAEC06F0CCECF4
:1059800006F005015A6B5B6B5C6B5D6B5E6B5F6B6E
:10599000606B616B626B636B646B656B666B676B93
:1059A000686B696B6A6B6B6B6C6B6D6B6E6B6F6B43
:1059B000706B716B726B736B746B756B766B776BF3
:1059C000786B796B7A6B7B6B7C6B7D6B7E6B7F6BA3
:1059D000806B020E816F826F836F846F856F866F1D
:1059E000876F886B896B8A6B8B6B8C6B8D6B8E6B07
:1059F0008F6B906B916B926B936B946B956B966BBB
:105A0000976B986B996B9A6B9B6F9C6F9D6F9E6F5A
:105A10009F6F010EA06F020EA16FA26FA36FA46F04
:105A2000A56FA66BA76BA86BA96BAA6BAB6BAC6BD6
:105A3000AD6BAE6BAF6BB06BB16BB26BB36BB46B8A
:105A4000B56FB66FB76FB86FB96FBA6FBB6F010E36
:105A5000BC6FBD6F020EBE6FBF6FC06FC16FC26FF4
:105A6000C36FC46BC56BC66BC76BC86BC96BCA6BA6
:105A7000CB6BCC6BCD6BCE6BCF6BD06FD16FD26F4E
:105A8000D36FD46FD56FD66FD76F010ED86FD96F24
:105A9000DA6F020EDB6FDC6FDD6FDE6FDF6FE06FE2
:105AA000E16BE26BE36BE46BE56BE66BE76BE86B7A
:105AB000E96BEA6BEB6FEC6FED6FEE6FEF6FF06F12
:105AC000F16FF26FF36F010EF46F020EF56F010EBE
:105AD000F66FF76F020EF86FF96FFA6FFB6FFC6FDE
